:0400000080310A2819
:100008007E1480318231E1227E10090080310C2873
:100018000130F8002E30F901840020308500C2300C
:10002800FE000130FF008331662380312030F0016B
:10003800F101F201F3018400003085001130FE0067
:10004800FF018331662380317E1020002B28803009
:100058003B00CB00BB00AB009B00FF3020009B00A7
:1000680005309C00F8302100990098010E118E107F
:100078000E100C1123000E118E100E100C11210001
:100088008E1123008E1103303D0092000430A00031
:100098000530A1000630A2000F303B0094000C3060
:1000A800A4000930B4000630C400FF3093007E304D
:1000B800A3000D30B3009C30C300C201B201A201FD
:1000C8009201C101B101A10191011F30C600B60022
:1000D800A6009600FF30C500B500A5009500CE012A
:1000E800BE01AE019E01C0308B0015303C0095006A
:1000F80021008E16903023009D001E129F011E15B0
:100108009C0103309B002100911620302000B6008E
:100118002E30B5008E11721C8F28721020002D0809
:10012800D0208031DB208031940020002D08D020A1
:10013800803100083B00930020002E08D020803139
:10014800DB208031A40020002E08D0208031000858
:100158003B00A30020002F08D0208031DB20803115
:10016800B40020002F08D020803100083B00B300E5
:1001780020003008D0208031DB208031C4002000EE
:100188003008D020803100083B00C3008030CF0009
:10019800BF00AF009F008F28B100E130B201B13538
:1001A800B20D310784008030323D85000800003FE1
:1001B800B300013FB4003B0008000034003446346B
:1001C800003446340034463400344634003446346F
:1001D8000034463400344834003448340034483459
:1001E8000034483400344934003449340034493444
:1001F80000344A3400344A3400344C3400344D342A
:1002080000344D3400344E34003450340034523409
:1002180000345334003454340034563400345834E1
:1002280000345A3400345C3400345E3400346034B2
:1002380000346234003464340034673400346A347F
:1002480000346C3400346F34003472340034763443
:1002580000347A3400347C340034803400348334FD
:100268000034883400348A3400348E3400349234B4
:100278000034983400349E340034A4340034AC3450
:100288000034B4340034BC340034C0340034C834CE
:100298000034D0340034DE340034E4340034EC3438
:1002A8000034F6340034063401340E340134163484
:1002B80001341E3401342C340134343401343C34D8
:1002C800013446340134563401346034013468341E
:1002D800013476340134823401348A34013496345A
:1002E8000134A6340134B2340134BE340134CC3480
:1002F8000134D8340134E4340134F634013402349E
:1003080002340E340234203402343034023440349F
:1003180002344C340234623402347034023480348F
:10032800023492340234A2340234B6340234C6346D
:100338000234D6340234EA340234003403341C3430
:1003480003342634033436340334483403346034F5
:10035800033476340334863403349E340334B0349F
:100368000334C8340334DC340334F434033406343B
:1003780004341C3404343A3404344C3404346834BB
:1003880004347E34043496340434B2340434C83427
:100398000434E0340434F834043414340534303488
:1003A80005344C34053466340534803405349C34C3
:1003B8000534B8340534D8340534F43405340E34EF
:1003C800063428340634483406346834063488340D
:1003D8000634A4340634C4340634DC340634043415
:1003E80007342434073440340734643407348434FD
:1003F8000734A4340734C8340734EC3407341034D1
:10040800083430340834503408347034083498349C
:100418000834C0340834E834083408340934303433
:1004280009345834093480340934A0340934C834C0
:100438000934F034093418340A3440340A3468343E
:100448000A3494340A34BC340A34E4340A34103498
:100458000B3438340B3460340B348C340B34B434F0
:100468000B34E8340B3416340C3440340C346C340C
:100478000C3498340C34CC340C34FC340C3428341C
:100488000D3458340D3488340D34B8340D34E83410
:100498000D3418340E3448340E3478340E34A834FD
:1004A8000E34E0340E3410340F3448340F347C34B6
:1004B8000F34B0340F34E4340F341834103450345B
:1004C800103488341034BC341034F43410342C34E0
:1004D80011346434113498341134D03411340C3458
:1004E8001234443412347C341234B4341234F034B8
:1004F8001234283413346C341334A8341334E434E9
:100508001334203414345C3414349C341434DC3400
:10051800143418341534583415349C341534DC34F8
:1005280015341C3416345C3416349C341634E034D8
:1005380016342834173468341734A8341734F03490
:1005480017343834183478341834C0341834043430
:1005580019344834193498341934E03419342834A7
:100568001A3470341A34B8341A3400341B3448340A
:100578001B3490341B34E0341B3430341C34803446
:100588001C34C8341C3418341D3468341D34803489
:100598001D34B8341D3408341E3450341E34A0348D
:1005A8001E34E8341E3430341F3478341F34C034D9
:1005B8001F34E8341F34FF341F3401302100911EEA
:1005C80000392000911E0039091C080023001D1D58
:1005D8004A2B1908F700F2140130F3002000A80193
:1005E800A9014A2B23001908F700552B2000911E5A
:1005F800552B23001908F700770820002C06031D47
:100608000E2B0230F3002D30AB000130F000F10169
:100618007215552BF301552B23001908F7007108A3
:10062800803AF4007908803A7402031D1D2B78087B
:100638007002031C2A2B7808790403192A2B20003E
:100648002B088600870177088100AB0AF00A031996
:10065800F10A7808043EF4000030793DF50071088D
:10066800803AF6007508803A7602031D3D2B74081F
:100678007002031C552B780879040319552B721442
:10068800F3012000A801A901F211552B7308003AC3
:100698000319F62A013A0319FA2A033A0319102B07
:1006A800552B20002908803AF40084307402031D79
:1006B8005F2BB1302802031C0800F2152000A801A6
:1006C800A90108006400013080010131FE020030F8
:0C06D800FF3B7F087E0403190034672BF1
:020000040001F9
:04000E00E4F9FBDF37
:00000001FF
