:04000000803108281B
:100008007E1480317E10090080310A28F001F10148
:10001800F201F301F401F501F601F701F801F90124
:10002800FA01FB012000A001A101A201A301A40182
:10003800A5017E102000202880303B00CB00BB00AB
:10004800AB009B00FF3020009B0005309C00F8307F
:100058002100990098010E118E100E100C1123002A
:100068000E118E100E100C1103303D00920004305A
:10007800A0000530A1000630A2000F303B0094001C
:100088000C30A4000930B4000630C400FF309300DF
:100098007E30A3000D30B3009C30C300C201B20112
:1000A800A2019201C101B101A10191011F30C60055
:1000B800B600A6009600FF30C500B500A500950063
:1000C800CE01BE01AE019E010530210095008B01D5
:0200D8006C2892
:020000040001F9
:04000E00E4F9FBDF37
:00000001FF
