:0400000080310D2816
:100008007E148031843162248031853148257E1008
:10001800090080310F286430F9000130E800A83069
:10002800E901EA01EB01840085308500D8308600BB
:10003800003087001830FF018531C0258031093034
:10004800840021308500E730FE00FF018531CC2592
:1000580080312030F501F601F701F8018400003005
:1000680085003B30FE00FF018531CC258031A03072
:100078008400003085003830FE00FF018531CC2532
:1000880080317E102000482880303B00CB00BB0028
:10009800AB009B00FF3020009B0005309C00F8302F
:1000A8002100990098010E118E100E100C112300DA
:1000B8000E118E100E100C1103303D00920004300A
:1000C800A0000530A1000630A2003B00C201B20129
:1000D800A2019201C101B101A10191011F30C60025
:1000E800B600A6009600FF30C500B500A500950033
:1000F800CE01BE01AE019E0121008E1123008E119A
:10010800C0308B008D208031FF218031D320803199
:100118008A2815303C00950021008E169030230067
:100128009D001E129F011E159C0103309B0021009B
:10013800911620000D30EC01EC0AED01A900933076
:10014800A8000D30AB00A330AA000D30AD00B330CD
:10015800AC000D30AF00C330AE000D30A1009430BC
:10016800A0000D30A300A430A2000D30A500B430CB
:10017800A4000D30A700C430A6000D302100B9003E
:100188009F30B8000D30BB00AF30BA000D30BD0055
:10019800BF30BC000D30BF00CF30BE000800F401F6
:1001A80020004B1C41294B100430740203184129CC
:1001B8007408573E342280310102740803180A2952
:1001C800373E86000108FC39023881007408573E22
:1001D800860074083F3E042280310318FB28683EDD
:1001E8003C2280312000E30074083F3E2729683E06
:1001F800860087018101810A74083B3E86008701D9
:100208007408683E8400850100083E293F3E3C2270
:1002180080310102740803183829373E8600010826
:10022800FC390138810074083F3E86007408573E47
:10023800042280310318FB28683E342280312000D4
:10024800E3007408573E84000008E4006308640271
:10025800DB00DC01031CDC037908DD00DE01BF21C3
:1002680080315B0881000029442280317408683E8F
:100278008600FF308100F40AD8282000301C0800CE
:10028800F70A3010F401A02950228031031D4F29AC
:100298001B228031810A74083B3E86008701810356
:1002A8006C2950228031031D4F291B228031810384
:1002B8004F297408373E860087010108033903195E
:1002C8009F29013A03194829033A031955296C292A
:1002D8004A2280312000E30063305C228031823082
:1002E80056228031203E282280314A228031E30084
:1002F80062305C228031823056228031283E2822AA
:1003080080317435B83E86008701403FE300413FA5
:10031800E400630886006408870080308100740860
:10032800573E342280310106031D9F297408373E49
:100338008600FC308105F40A04307402031C5D2930
:100348002000CB1D08003B00C301C401B301B40168
:10035800A301A401930194018030CF00BF00AF0036
:100368009F00F40104307402031808007408442242
:100378008031F40AB629E001DC1FC929DB09DC0950
:10038800DB0A0319DC0AE001E00ADE1FD229DD09D5
:10039800DE09DD0A0319DE0A0130E006E101E201A7
:1003A8005B085C040319F229DF01DF0ADC1BDF2983
:1003B800DB35DC0DD929E135E20D5C085E02031D51
:1003C800E7295B085D02031CEE295B08DD025C0877
:1003D800DE3B6114DC36DB0CDF0BDF296008031918
:1003E800FA29E109E209E10A0319E20A6208DC00D4
:1003F8006108DB0008001114213020009800080073
:10040800840000082000E300E4016408E600010815
:100418006302E500031CE6036608803AE7008030C3
:100428006702031D192A7908650274080800740810
:100438003B3E86007408683E840085010008810000
:1004480074083F3E860008008600403FE600413FB2
:10045800E7006608860067088700650881000800CD
:100468008600870174083F3E840085010008080063
:10047800860087017408573E84008501000808003B
:10048800373E8600FC3087018105080074083F3E2E
:10049800860087010108080074083B3E8600870132
:1004A80001080800643D85000008E500743508006F
:1004B800E401E335E40D63078400080000340034E8
:1004C800463400344634003446340034463400346C
:1004D8004634003446340034483400344834003458
:1004E8004834003448340034493400344934003442
:1004F800493400344A3400344A3400344C3400342B
:100508004D3400344D3400344E340034503400340B
:1005180052340034533400345434003456340034E4
:10052800583400345A3400345C3400345E340034B7
:100538006034003462340034643400346734003486
:100548006A3400346C3400346F340034723400344C
:10055800763400347A3400347C3400348034003407
:1005680083340034883400348A3400348E340034C0
:1005780092340034983400349E340034A434003467
:10058800AC340034B4340034BC340034C0340034E7
:10059800C8340034D0340034DE340034E434003459
:1005A800EC340034F6340034063401340E340134AB
:1005B800163401341E3401342C34013434340134FB
:1005C8003C34013446340134563401346034013447
:1005D8006834013476340134823401348A34013485
:1005E80096340134A6340134B2340134BE340134B3
:1005F800CC340134D8340134E4340134F6340134D1
:10060800023402340E3402342034023430340234DA
:10061800403402344C3402346234023470340234CC
:100628008034023492340234A2340234B6340234B0
:10063800C6340234D6340234EA3402340034033483
:100648001C34033426340334363403344834033436
:100658006034033476340334863403349E340334EC
:10066800B0340334C8340334DC340334F43403348E
:10067800063404341C3404343A3404344C3404341A
:10068800683404347E34043496340434B234043484
:10069800C8340434E0340434F834043414340534ED
:1006A800303405344C34053466340534803405342C
:1006B8009C340534B8340534D8340534F43405345E
:1006C8000E34063428340634483406346834063484
:1006D80088340634A4340634C4340634DC3406348E
:1006E800043407342434073440340734643407347A
:1006F80084340734A4340734C8340734EC3407345A
:100708001034083430340834503408347034083421
:1007180098340834C0340834E834083408340934C8
:10072800303409345834093480340934A034093455
:10073800C8340934F034093418340A3440340A34DB
:1007480068340A3494340A34BC340A34E4340A343D
:1007580010340B3438340B3460340B348C340B3491
:10076800B4340B34E8340B3416340C3440340C34C1
:100778006C340C3498340C34CC340C34FC340C34D5
:1007880028340D3458340D3488340D34B8340D34CD
:10079800E8340D3418340E3448340E3478340E34BA
:1007A800A8340E34E0340E3410340F3448340F3487
:1007B8007C340F34B0340F34E4340F34183410342C
:1007C8005034103488341034BC341034F4341034B9
:1007D8002C3411346434113498341134D034113435
:1007E8000C341234443412347C341234B434123499
:1007F800F0341234283413346C341334A8341334DA
:10080800E4341334203414345C3414349C341434F5
:10081800DC34143418341534583415349C341534F5
:10082800DC3415341C3416345C3416349C341634D9
:10083800E03416342834173468341734A83417349D
:10084800F03417343834183478341834C034183441
:10085800043419344834193498341934E0341934C8
:1008680028341A3470341A34B8341A3400341B3427
:1008780048341B3490341B34E0341B3430341C347B
:1008880080341C34C8341C3418341D3468341D3486
:1008980080341D34B8341D3408341E3450341E34AA
:1008A800A0341E34E8341E3430341F3478341F34F6
:1008B800C0341F34E8341F34FF341F3401302100A2
:1008C800911E00392000911E0039091C08002300E0
:1008D8001D1D282D1908F3002000CB140130F80045
:1008E800CD01CE01282D23001908F300322D200058
:1008F800911E322D23001908F3007308031D912C53
:100908000230F80057302000D6000130CF00D00167
:100918004B157708F900F701322DCC307306031D0B
:100928009A2C0330F80020004B15322DF801322D97
:1009380023001908F30020005008803AF0006D08E1
:10094800803A7002031DAA2C6C084F02031CB72CB6
:1009580020006C086D040319B72C5608860087011F
:1009680073088100D60A2000CF0A0319D00A6C0840
:10097800043EF00000306D3DF1005008803AF2006E
:100988007108803A7202031DCB2C70084F02031CB9
:10099800322D20006C086D040319322D4B144325A9
:1009A8008431322D23001908F300730B322D0430E3
:1009B800F8001730F5002000C301262D2300190880
:1009C800F3007508A03E8600870173088100023095
:1009D8007506031DFD2C210022080319FD2C20009B
:1009E80043084404031DFD2C0530F800E630F600EA
:1009F800322D7508031D042D2000CB1743258431A3
:100A0800F503322D23001908F3007608093EF0009B
:100A18002130F101F13D70088600710887007308E4
:100A28008100F603F10121002208E63CF000031CD6
:100A3800F10376067104031D322D0430F8000130ED
:100A48002000C300C401322D780884000630040257
:100A58000318322D85310435D83E820020004E0817
:100A6800803AF00089307002031D3C2D61304D0240
:100A7800031C08002000CB15CD01CE010800F801A9
:100A8800CD01CE01CB1108002100111C0800200067
:100A9800111C080011109F2DD3018C1E552D0130FB
:100AA800562D0030F0002100111F5C2D01305D2D06
:100AB80000307006031D622D20003614FE30200021
:100AC80097000B309600CD0A0319CE0A60304D0608
:100AD800093003194E06031D762D6130CD0009300B
:100AE800CE00CB15B10A0319B20A3014E83031062A
:100AF800033003193206031D0800B101B201B30A1D
:100B0800B0143C303306031D0800B301B40A301595
:100B18003C303406031D0800B401B50AB0150800BE
:100B280023009E1621001116FC3020009700DF30AC
:100B38009600D30108005308003A0319512D013AD1
:100B48000319942D502D080000344D3452341734B5
:100B5800C334103492340034003400340034003488
:100B680000340034003400340034003400340034DD
:100B78000034003400340034FE0012001E0001303E
:100B8800FE020030FF3B7F087E0403190034C12DAC
:100B98006400013080010131FE020030FF3B7F0814
:100BA8007E0403190034CD2D8431772C84317B2CBD
:100BB80084319C2C8431D62C8431E22C8531062D4D
:020000040001F9
:04000E00E4F9FBDF37
:00000001FF
