:0400000080310D2816
:100008007E148031833133238031843108247E107B
:10001800090080310F280930840021308500E7303D
:10002800FE00FF018431832480312030F001F1018A
:10003800F201F301F401F501F601F7018400003043
:1000480085004730FE00FF018431832480317E1013
:1000580020002E2880303B00CB00BB00AB009B006B
:10006800FF3020009B0005309C00F83021009900EB
:1000780098010E118E100E100C1123000E118E1007
:100088000E100C1103303D0092000430A000053022
:10009800A1000630A2000F303B0094000C30A400F1
:1000A8000930B4000630C400FF3093007E30A3004E
:1000B8000D30B3009C30C300C201B201A20192010D
:1000C800C101B101A10191011F30C600B600A6000F
:1000D8009600FF30C500B500A5009500CE01BE0111
:1000E800AE019E0121008E1123008E11C0308B00BD
:1000F80083208031FA208031992080318028153082
:100108003C00950021008E16903023009D001E12A1
:100118009F011E159C0103309B00210091160021B0
:100128002000E701E70AE8010800701CC6287010E3
:1001380020006308132180319400200063082021E7
:10014800803193002000640813218031A40020002E
:10015800640820218031A300200065081321803124
:10016800B4002000650820218031B3002000660813
:1001780013218031C4002000660820218031C3008B
:100188002D218031D92080312000501C08005010CA
:10019800F01D08003B00C301C401B301B401A30171
:1001A800A401930194012D210800711C080071100D
:1001B800CD302000D700D801F5011630750203189C
:1001C800EF287508383E860087010108D70703180D
:1001D800D80AF50AE12858084F06031DF5285708DC
:1001E8004E06031D080008308E0608002100111471
:1001F8002130200098000800F4012000D501D40126
:10020800D301D001FC30970017309600111021005F
:1002180011140B1722000E1621000E120800E90017
:100228003430EA01E935EA0D6907840081306A3D16
:10023800850000083B000800E9003330EA01E93591
:10024800EA0D6907840081306A3D850000083B009B
:1002580008008030CF00BF00AF009F0008000034C6
:1002680000344634003446340034463400344634CE
:1002780000344634003446340034483400344834BA
:1002880000344834003448340034493400344934A4
:100298000034493400344A3400344A3400344C348D
:1002A80000344D3400344D3400344E34003450346E
:1002B8000034523400345334003454340034563447
:1002C8000034583400345A3400345C3400345E341A
:1002D80000346034003462340034643400346734E9
:1002E80000346A3400346C3400346F3400347234AF
:1002F8000034763400347A3400347C34003480346A
:10030800003483340034883400348A3400348E3422
:10031800003492340034983400349E340034A434C9
:100328000034AC340034B4340034BC340034C03449
:100338000034C8340034D0340034DE340034E434BB
:100348000034EC340034F6340034063401340E340E
:100358000134163401341E3401342C34013434345D
:1003680001343C34013446340134563401346034A9
:1003780001346834013476340134823401348A34E7
:10038800013496340134A6340134B2340134BE3415
:100398000134CC340134D8340134E4340134F63433
:1003A8000134023402340E3402342034023430343E
:1003B8000234403402344C3402346234023470342F
:1003C80002348034023492340234A2340234B63413
:1003D8000234C6340234D6340234EA3402340034E7
:1003E80003341C3403342634033436340334483499
:1003F80003346034033476340334863403349E344F
:100408000334B0340334C8340334DC340334F434F0
:100418000334063404341C3404343A3404344C347D
:100428000434683404347E34043496340434B234E6
:100438000434C8340434E0340434F8340434143450
:100448000534303405344C3405346634053480348E
:1004580005349C340534B8340534D8340534F434C0
:1004680005340E34063428340634483406346834E7
:10047800063488340634A4340634C4340634DC34F0
:1004880006340434073424340734403407346434DD
:10049800073484340734A4340734C8340734EC34BC
:1004A8000734103408343034083450340834703485
:1004B800083498340834C0340834E834083408342C
:1004C8000934303409345834093480340934A034B8
:1004D8000934C8340934F034093418340A3440343F
:1004E8000A3468340A3494340A34BC340A34E434A0
:1004F8000A3410340B3438340B3460340B348C34F5
:100508000B34B4340B34E8340B3416340C34403424
:100518000C346C340C3498340C34CC340C34FC3437
:100528000C3428340D3458340D3488340D34B83430
:100538000D34E8340D3418340E3448340E3478341D
:100548000E34A8340E34E0340E3410340F344834EA
:100558000F347C340F34B0340F34E4340F3418348F
:1005680010345034103488341034BC341034F4341B
:1005780010342C3411346434113498341134D03498
:1005880011340C341234443412347C341234B434FC
:100598001234F0341234283413346C341334A8343D
:1005A8001334E4341334203414345C3414349C3459
:1005B8001434DC34143418341534583415349C3459
:1005C8001534DC3415341C3416345C3416349C343D
:1005D8001634E03416342834173468341734A83401
:1005E8001734F03417343834183478341834C034A5
:1005F8001834043419344834193498341934E0342C
:10060800193428341A3470341A34B8341A3400348B
:100618001B3448341B3490341B34E0341B343034DE
:100628001C3480341C34C8341C3418341D346834E9
:100638001D3480341D34B8341D3408341E3450340D
:100648001E34A0341E34E8341E3430341F34783459
:100658001F34C0341F34E8341F34FF341F340130D2
:100668002100911E00392000911E0039091C080044
:1006780023001D1DED2B1908FB00F0140130F700B5
:100688002000DD01DE01ED2B23001908FB00F72B0C
:100698002000911EF72B23001908FB007B08031D7F
:1006A8005E2B0230F70063302000E2000130F200D8
:1006B800F301642BCC307B06031D662B0330F70057
:1006C8007015F72BF701F72B23001908FB007308A7
:1006D800803AF80020006808803A7802031D762BDB
:1006E80067087202031C832B20006708680403193B
:1006F800832B6208860087017B088100E20AF20AE0
:100708000319F30A20006708043EF8000030683D2A
:10071800F9007308803AFA007908803A7A02031DD2
:10072800972B78087202031CF72B200067086804CF
:100738000319F72B7014F701CD2B23001908FB00C0
:100748007B0BF72B0430F700F5012000D901EB2BC8
:1007580023001908FB007508383E860087017B08CE
:100768008100F50A17307506031DC62B20004D08B9
:100778000319C62B59085A04031DC62B0530F70068
:10078800F601F72B18307506031DF72B7114F701C6
:100798002000DD01DE01F011F72B23001908FB0012
:1007A8007608093EF8002130F901F93D78088600FD
:1007B800790887007B088100F60A20004D08760634
:1007C800031DF72B0430F700F50A0130D900DA01D0
:1007D800F72B77088400063004020318F72B8431BE
:1007E80004358F3E820020005E08803AF80084308D
:1007F8007802031D012CB1305D02031C0800F015BE
:100808002000DD01DE0108002100111C0800200085
:10081800111C08001110772CF401501A701E1F2C9F
:10082800FF3097004B30960022000E120130F40082
:100838002000501208008C1E232C0130242C00307C
:10084800F8002100111F2A2C01302B2C00307806CB
:10085800031D302C20005614FC3020009700173060
:100868009600DD0A0319DE0AB0305D06043003196C
:100878005E06031D442CB130DD000430DE00F015A7
:10088800D10A0319D20A5014E8305106033003196B
:100898005206031D0800D101D201D30AD0143C30FE
:1008A8005306031D0800D301D40A50153C305406E2
:1008B800031D0800D401D50AD015080022000E1621
:1008C800FF3020009700EB3096000230F40008005B
:1008D80023009E1621001116FC3020009700DF30FF
:1008E8009600F40108007408003A0319112C013A23
:1008F8000319622C033A03196C2C102C08006400AD
:10090800013080010131FE020030FF3B7F087E0488
:1009180003190034842C8331482B83314C2B8331C9
:0E092800682B8331A12B8331AC2B8331D12B73
:020000040001F9
:04000E00E4F9FBDF37
:00000001FF
