:0400000080310A2819
:100008007E1480318231E9227E10090080310C286B
:100018000130FA00CC30FB01B3002030F001F101CF
:10002800F201F301F401F50184000030850011307C
:100038008331BF2380317E102000222880303B008E
:10004800CB00BB00AB009B00FF3020009B000530BD
:100058009C00F8302100990098010E118E100E10A6
:100068000C1123000E118E100E100C1103303D00E0
:1000780092000430A0000530A1000630A2000F3025
:100088003B0094000C30A4000930B4000630C400D2
:10009800FF3093007E30A3000D30B3009C30C300C6
:1000A800C201B201A2019201C101B101A1019101F4
:1000B8001F30C600B600A6009600FF30C500B50088
:1000C800A5009500CE01BE01AE019E0121008E1152
:1000D80023008E11C0308B0075208031862080313E
:1000E800722815303C00950021008E1690302300B0
:1000F8009D001E129F011E159C0103309B002100CC
:100108009116C428731CB328731020002D08C92029
:100118008031940020002D08D620803193002000E3
:100128002E08C9208031A40020002E08D620803156
:10013800A30020002F08C9208031B40020002F0818
:10014800D6208031B30020003008C9208031C40097
:1001580020003008D6208031C300E3208031200001
:10016800201C08002010F31D08003B00C301C40137
:10017800B301B401A301A40193019401E320080091
:1001880011142130200098000800B100EA30B201B3
:10019800B135B20D310784008030323D850000084A
:1001A8003B000800B100E930B201B135B20D3107AA
:1001B80084008030323D850000083B000800803014
:1001C800CF00BF00AF009F00080000340034463461
:1001D800003446340034463400344634003446345F
:1001E8000034463400344834003448340034483449
:1001F8000034483400344934003449340034493434
:1002080000344A3400344A3400344C3400344D3419
:1002180000344D3400344E340034503400345234F9
:1002280000345334003454340034563400345834D1
:1002380000345A3400345C3400345E3400346034A2
:1002480000346234003464340034673400346A346F
:1002580000346C3400346F34003472340034763433
:1002680000347A3400347C340034803400348334ED
:100278000034883400348A3400348E3400349234A4
:100288000034983400349E340034A4340034AC3440
:100298000034B4340034BC340034C0340034C834BE
:1002A8000034D0340034DE340034E4340034EC3428
:1002B8000034F6340034063401340E340134163474
:1002C80001341E3401342C340134343401343C34C8
:1002D800013446340134563401346034013468340E
:1002E800013476340134823401348A34013496344A
:1002F8000134A6340134B2340134BE340134CC3470
:100308000134D8340134E4340134F634013402348D
:1003180002340E340234203402343034023440348F
:1003280002344C340234623402347034023480347F
:10033800023492340234A2340234B6340234C6345D
:100348000234D6340234EA340234003403341C3420
:1003580003342634033436340334483403346034E5
:10036800033476340334863403349E340334B0348F
:100378000334C8340334DC340334F434033406342B
:1003880004341C3404343A3404344C3404346834AB
:1003980004347E34043496340434B2340434C83417
:1003A8000434E0340434F834043414340534303478
:1003B80005344C34053466340534803405349C34B3
:1003C8000534B8340534D8340534F43405340E34DF
:1003D80006342834063448340634683406348834FD
:1003E8000634A4340634C4340634DC340634043405
:1003F80007342434073440340734643407348434ED
:100408000734A4340734C8340734EC3407341034C0
:10041800083430340834503408347034083498348C
:100428000834C0340834E834083408340934303423
:1004380009345834093480340934A0340934C834B0
:100448000934F034093418340A3440340A3468342E
:100458000A3494340A34BC340A34E4340A34103488
:100468000B3438340B3460340B348C340B34B434E0
:100478000B34E8340B3416340C3440340C346C34FC
:100488000C3498340C34CC340C34FC340C3428340C
:100498000D3458340D3488340D34B8340D34E83400
:1004A8000D3418340E3448340E3478340E34A834ED
:1004B8000E34E0340E3410340F3448340F347C34A6
:1004C8000F34B0340F34E4340F341834103450344B
:1004D800103488341034BC341034F43410342C34D0
:1004E80011346434113498341134D03411340C3448
:1004F8001234443412347C341234B4341234F034A8
:100508001234283413346C341334A8341334E434D8
:100518001334203414345C3414349C341434DC34F0
:10052800143418341534583415349C341534DC34E8
:1005380015341C3416345C3416349C341634E034C8
:1005480016342834173468341734A8341734F03480
:1005580017343834183478341834C0341834043420
:1005680019344834193498341934E0341934283497
:100578001A3470341A34B8341A3400341B344834FA
:100588001B3490341B34E0341B3430341C34803436
:100598001C34C8341C3418341D3468341D34803479
:1005A8001D34B8341D3408341E3450341E34A0347D
:1005B8001E34E8341E3430341F3478341F34C034C9
:1005C8001F34E8341F34FF341F347F238231013055
:1005D8002100911E00392000911E0039091C0800D5
:1005E80008308E0623001D1D602B1908F900F3142E
:1005F8000130F4002000A601A701602B2300190890
:10060800F9006E2B2000911E6E2B23001908F900AB
:1006180079087506031D192B0230F4002D302000CF
:10062800AC000130F000F101222B790820003306DC
:10063800031D242B0330F4002D30AC0073156E2BF2
:10064800F4016E2B23001908F9007108803AF600AE
:100658007B08803A7602031D332B7A087002031C4C
:10066800402B7A087B040319402B20002C088600B5
:10067800870179088100AC0AF00A0319F10A7A089F
:10068800043EF60000307B3DF7007108803AF80020
:100698007708803A7802031D532B76087002031CF2
:1006A8006E2B7A087B0403196E2B7314F401200057
:1006B800A601A701F3116E2B7408003A0319022B47
:1006C800013A0319062B033A0319262B013A031999
:1006D8006E2B6E2B20002708803AF60084307602B5
:1006E800031D782BB1302602031C0800F3152000E7
:1006F800A601A70108002100111C08002000111CF8
:1007080008001110B92BF201FC3097001730960041
:10071800A60A0319A70AB0302606043003192706CB
:10072800031D9B2BB130A6000430A700F315A10AC6
:100738000319A20A2014E8302106033003192206FF
:10074800031D0800A101A201A30AA0143C3023063E
:10075800031D0800A301A40A20153C302406031D2C
:100768000800A401A50AA01508007208003A031998
:10077800882B872B0800640080010131890BC02B6E
:0207880000343B
:020000040001F9
:04000E00E4F9FBDF37
:00000001FF
