:040000008031132810
:100008007E1480318731CC278031863109268031B2
:100018008831632080318831D6207E1009008031F4
:10002800152821006430EE0022000130DE00023085
:10003800DF01E001E101E201E301E401E501E6009D
:100048008B30E701E801E901840021308500653043
:10005800FE00FF018731AA278031A030F601F701A1
:10006800F801F9018400003085004C30FE00FF01E2
:100078008731AA27803120308400013085003E3046
:10008800FE00FF018731AA278031A03084000130AB
:1000980085003830FE00FF018731AA2780317E10A5
:1000A8002000562880303B00CB00BB00AB009B00F3
:1000B800FF3020009B0005309C00F03021009900A3
:1000C80098010E118E100E100C1123000E118E10B7
:1000D8000E100C1103303D0092000430A0000530D2
:1000E800A1000630A2003B009401A401B401C401A0
:1000F8009301A301B301C301C201B201A20192019C
:10010800C101B101A10191013F30C600B600A600AE
:100118009600FF30C500B500A5009500CE01BE01D0
:10012800AE019E0121008E1123008E11C0308B007C
:10013800DE208031AB208031A922803154218931E1
:1001480066218031B720803105228031A328210023
:100158000C1623000C160D3021009D0070309E00F7
:1001680020001113080021004A1C0800C601C7011D
:100178004A104B08F4000430A82380318430753DC0
:10018800850000083B00C400B400A40094002100CE
:100198004B08F4000330A82380318430753D850076
:1001A80000083B00C300B300A3009300B423210060
:1001B8009D14080015303C00950021008E169030E3
:1001C80023009D001E129F011E159C0107309B00F5
:1001D800210091160D30EC01EC0AED012200C5005A
:1001E8009330C4000D30C700A330C6000D30C900DD
:1001F800B330C8000D30CB00C330CA000D30230027
:10020800B5009430B4000D30B700A430B6000D30FE
:10021800B900B430B8000D30BB00C430BA000D309E
:10022800AD009F30AC000D30AF00AF30AE000D30E8
:10023800B100BF30B0000D30B300CF30B200F401D0
:1002480004307402031808007408663E8600013002
:1002580087000230810074355E3E860074355F3E4B
:10026800840001308500803F81007408B33E860019
:10027800870101112000A001A101A20174087407DF
:100288007407A03E86009A238031740874077407A7
:10029800383E8600013087009A238031F40A2429E9
:1002A8002100CC01B101B001AF01AC018831D020EF
:1002B80080311110210011140B1722000E16210095
:1002C8000E1223009E169D171E1209303D00A40031
:1002D800D4302100C2000030C30023001E141E1CAD
:1002E800782923001E177A2923001E132100C40130
:1002F800C5017711F71121302200D7008B30D600C5
:100308001730F80011307802031C93297808C03E92
:10031800860001308700FE308100F8038629AA3064
:100328002300D000F8012200D401D501063078025C
:100338000318C429FE30F4007808F8218031CF3E34
:100348006F238031AA38BA238031F8218031CE3E1C
:100358006F2380315538BA238031F8218031CF3E60
:10036800932380310318D50AFE30F4007808F82169
:100378008031CE3E932380310318D50AF80A9A2992
:1003880055082100D500220054082100D400F801A6
:100398005508AA382300C300210055085538230002
:1003A800C20021005408AA382300C10021005408C3
:1003B80055382300C0001030F8000B307802031CB9
:1003C80008007808D43E8600863087012000A30004
:1003D8007808133CA200031CA303840023088500AB
:1003E80000088100F803E1292000A100A001740899
:1003F8002118A007F435A1362108031DFB29200880
:100408000800761F08007613FC30F70552302200EA
:1004180035064D30031936060319172A350F332AC6
:10042800360A031D332A923031061030031932067A
:10043800C3300319330617300319340603192F2A5A
:10044800310F332A320A031D332A330A031D332A94
:10045800340A031D332A7708FC390138F700770876
:100468000339013A031D5B2A2030860001308700DA
:10047800203084000030850018302000BD001600B0
:100488001A00BD0B432A6530B80071228031220062
:10049800210820002106031D552A220020082000DB
:1004A8002006031D5B2A7708FC390238F700770815
:1004B8000339023A031D080022002508103A0319DF
:1004C8006C2A303A03196E2A103A03196F2A702AD7
:1004D8008631E72EAF2ABF2B0800CD302200D4008A
:1004E8001730D5012100CD0002304D02031C882AA7
:1004F8004D08203E8600870101082200D407031812
:10050800D50A2100CD03782A20003808FF3E2100B3
:10051800CD00200022083802F800780821004D029A
:10052800031CA02A780889315F2180312200D40772
:100538000318D50AF80A912A220055082000A100BC
:10054800220054082000A0000800210011143130B6
:10055800200098000800132B392380311A30EB0053
:10056800DD010130D600770CF400F40C740C01396D
:10057800F500B23086002130870075088100292BEC
:1005880013302100D60039238031DD012130C1002C
:10059800B130A12380310130C13F2130C100AF30DB
:1005A800C00086004108870080308D238031AD303F
:1005B8007B238031BF00A930BE0086003F0887003A
:1005C8000130C03F0030C13FC23FC33F2130C100AE
:1005D800A7307B238031C100A530C00086004108C8
:1005E800870001308D238031A3308423803121306E
:1005F800C100A130A1238031C13F8B30860021305A
:10060800870055318101292B21302100C100B130EB
:100618008423803139238031AE238031292B220075
:100628002408003A03191C2B103A0319242B292BF0
:100638002308603A0319C42A903A0319082B292B76
:100648002308003A0319B02A292BD430FB23803120
:10065800F40016001A00F40B2D2B28302000B800E7
:1006680071228031EE238031602B2B3086000130DF
:100678008700403F2100E500413FE600423FE70098
:10068800433FE800220030082100EA0022002F083A
:100698002100E90022002A082100DE0022002508A6
:1006A800013E2100D900220024082100D8002200A0
:1006B80023082100D7000800FF30200097004B30A6
:1006C800960001302100CC0022000E128E15210068
:1006D800BA00BB0108008600013087007808033E95
:1006E800840086300318013E850000080800C00019
:1006F8008600410887000430C03F0030C13F2134E4
:10070800C0008600410887006C08C03F6D08C13FE3
:100718000800C03F0030C13F2130C10008008600FA
:100728000130870001082200D40708002008C03FD4
:100738002108C13F2208C23F0800C00086004108C6
:1007480087000030C03F0800F501F435F50D740747
:10075800840008001A30EB00DD010230D6000800E2
:100768008030CF00BF00AF009F0008008100FE303E
:10077800F40078080800D32B21302100C100EE30A6
:10078800C000860041088700403FEC00413FED0073
:10079800392380311830EB00DD01D601DE2B220031
:1007A8002408003A0319D92BDE2B2308F03A031941
:1007B800C02BDE2BD430FB238031F40016001A0046
:1007C800F40BE22B28302000B80071228031EE2390
:1007D8008031602B21082100D5002000200821004D
:1007E800D4000130CF00CC3023009A0008008600E6
:1007F8000030870020308400003085001834003431
:1008080000348C3400348E34003491340034943401
:10081800003496340034993400349C3400349F34C6
:100828000034A2340034A5340034A8340034AC3485
:100838000034AF340034B2340034B6340034B93440
:100848000034BC340034C0340034C4340034C734F9
:100858000034CB340034CF340034D3340034D734AC
:100868000034DB340034DF340034E3340034E8345B
:100878000034EC340034F1340034F5340034FA3404
:100888000034FF34003403340134083401340D34A7
:10089800013412340134183401341D340134223443
:1008A8000134283401342D340134333401343934DB
:1008B80001343F340134453401344B34013451346C
:1008C8000134583401345E340134653401346C34F5
:1008D8000134733401347A34013481340134883476
:1008E800013490340134973401349F340134A734EF
:1008F8000134AF340134B7340134BF340134C8345F
:100908000134D0340134D9340134E2340134EB34C5
:100918000134F4340134FE3401340834023411341F
:1009280002341C34023426340234303402343B346A
:10093800023446340234513402345C3402346734AD
:100948000234733402347F3402348B3402349734E3
:100958000234A4340234B1340234BE340234CB3409
:100968000234D8340234E6340234F4340234033422
:10097800033411340334203403342F3403343F3424
:1009880003344E3403345E3403346F3403347F3419
:10099800033490340334A2340334B3340334C534F9
:1009A8000334D7340334EA340334FD3403341034C5
:1009B800043424340434383404344D340434613475
:1009C8000434773404348C340434A2340434B93411
:1009D8000434D0340434E7340434FF340434173492
:1009E80005343034053449340534623405347D34F3
:1009F800053497340534B2340534CE340534EA343A
:100A0800053407340634243406344234063460345A
:100A180006347F3406349E340634BE340634DF345C
:100A28000634003407342234073445340734683434
:100A380007348C340734B1340734D6340734FC34E3
:100A48000734223408344A340834723408349B3466
:100A58000834C5340834EF3408341B3409344734B7
:100A6800093474340934A1340934D03409340034D5
:100A78000A3430340A3461340A3494340A34C734BA
:100A88000A34FB340A3430340B3467340B349E3464
:100A98000B34D6340B3410340C344A340C348634CA
:100AA8000C34C2340C3400340D343F340D347F34EC
:100AB8000D34C1340D3403340E3447340E348C34C1
:100AC8000E34D3340E341B340F3464340F34AE3444
:100AD8000F34FA340F344834103497341034E73470
:100AE8001034393411348D341134E234113438343B
:100AF800123491341234EA34123446341334A434A0
:100B080013340334143464341434C63414342B3496
:100B1800153492341534FA34153465341634D13416
:100B2800163440341734B034173423341834983416
:100B380018340F3419348934193405341A34833489
:100B48001A3403341B3486341B340B341C3493346A
:100B58001C341E341D34AB341D343A341E34CD34A9
:100B68001E3462341F34FA341F349534203433343D
:100B78002134D4342134783422341F342334C93412
:100B880023347634243427342534DB342534933421
:100B980026344D3427340C342834CE342834943455
:100BA80029345D342A342A342B34FB342B34D134A1
:100BB8002C34AA342D3487342E3468342F344E34F0
:100BC800303438343134273432341A34333411342D
:100BD80034340E3435340F343634153437341F3446
:100BE80038342F34393444343A345F343B347E3427
:100BF8003C34A4343D34CE343E34FF343F344D3499
:100C080052341734C3341034923401302100911E09
:100C180000392000911E0039091C080023001D1D01
:100C2800C02E1908F200F61401302100D200C601C6
:100C3800C701C02E23001908F200CB2E2000911EF8
:100C4800CB2E23001908F2007208031D372E02303C
:100C58002100D2005A30D3000130C800C901510820
:100C6800EE00D101CB2ECC307206031D3F2E03308F
:100C78002100D200CB2E2100D201CB2E230019084F
:100C8800F20021006D084902031D4C2E6C08480231
:100C9800031C562E6C086D040319562E5308DC26C7
:100CA8008631D30AC80A0319C90A6C08043EF00041
:100CB80000306D3DF1004902031D642E70084802A2
:100CC800031CCB2E6C086D040319CB2E7614E22678
:100CD8008631CB2E23001908F200720BCB2E04307C
:100CE8002100D2001730CD00BC01BC2E230019080A
:100CF800F20021004D08203EDC26863102304D06E8
:100D0800031D962E4D08203E860001080319962ED5
:100D18003C083D04031D962E0530D2006430F800CF
:100D2800CD03CB2E4D08031D942E7617E22686316F
:100D3800942E23001908F20078088B3EF000213029
:100D4800F101F13D70088600710887007208810082
:100D5800F10122002208653CF000031CF10378062B
:100D68007104031DBE2E04302100D2000130BC00E6
:100D7800BD01CB2EF803CB2E21005208840006308B
:100D880004020318CB2E87310435B63E82002100B9
:100D98004708803AF00089307002031DD52E613073
:100DA8004602031C080076152100C601C701080089
:100DB800860001308700720881000800D201C60150
:100DC800C701761108005E2F771908007708FC39EB
:100DD8000138F70021302100C100EE30C000213079
:100DE800BF00EA30942786315330031939020318BB
:100DF8000A2F70278631031D0A2FA12786319330C9
:100E080086278631031C0A2FFC30F7052130210084
:100E1800C100E830C0002130BF00E430942786319B
:100E2800523003193902031C262F70278631031DFF
:100E3800262FA12786319230862786310318262F40
:100E4800FC30F70577080339033A031D0800023020
:100E58002100CF00CC3023009A00D7302100C200F7
:100E68000130C300C401C5018331602B771583317C
:100E7800392386318331AE238631B1308600213063
:100E88008700B23081018600D43081018331FB2391
:100E980086312000B90016001A00B90B4F2F2830F0
:100EA800B8008231712286318331EE238631382FA2
:100EB8007711080022002408003A0319642F6F2FC5
:100EC8002308013A0319E82E033A03193A2F013A85
:100ED80003195C2F6F2F080077080339B900B90A86
:100EE80077083906FC393906F700210040088600E2
:100EF800410887001600523A2000B90016004D3A02
:100F0800B90408003902413FB9001030393B423F6B
:100F1800B900C330393B433FB9001730393B0800AB
:100F2800BE004008860041088700403F2000B90005
:100F3800413FBA004D303A02080021003E088600C1
:100F48003F088700403F2000B900080064000130D6
:100F580080010131FE020030FF3B7F087E04031947
:100F68000034AB2F86311E2E8631222E8631422E3A
:100F780086316E2E86317A2E86319D2E8831F6285E
:100F88008831DD288831F42889310A2989312629D0
:100F98002000111F080021001C08CB004A14200063
:040FA8001113080019
:1010C6002100111C08002000111C08001110C32863
:1010D600CC0120008C1E7128013072280030F000EF
:1010E6002100111F78280130792800307006031975
:1010F6003214D02088312100C60A0319C70A60308D
:101106004606093003194706031D8E286130C600BE
:101116000930C7007615AD0A0319AE0A2C14E8305B
:101126002D06033003192E06031D0800AD01AE017E
:10113600AF0AAC143C302F06031D0800AF01B00AFD
:101146002C153C303006031D0800B001B10AAC1561
:10115600080022000E16FF3020009700EB309600A4
:1011660002302100CC00080023009E162100111633
:10117600FC3020009700DF3096002100CC010800EB
:1011860021004C08003A03196C28013A0319AC28CF
:10119600033A0319B7286B280800FE302000970091
:1011A6000B30960008002100111E08002000111EB9
:1011B600080045293A033B04031DE728BA01BB0191
:1011C600CC3023009A000800013023009A00EB304F
:1011D6002100C2000030C3000330C401C501CF00A6
:1011E6000800CF01E32800304502193003194402F4
:1011F6000318012951210319C50A080022000E16F9
:1012060023009E122100111222008E1108000030C8
:101216004502193003194402031801295121883166
:101226000319C50A163044064504031D080056086E
:10123600031908003A083B04031D08000430CF00D8
:101246002730CE0008004E085F21883123009A001F
:10125600F10121005608283CF000031CF1034E085A
:10126600F200F30171087306031D3B29700872062C
:10127600031D43290330CF000130BA00BB0108002B
:10128600CE03080021004F0884000530040203182D
:10129600080087310435C23E8200080042088600F5
:1012A60043088700010823009A0001302100C2028A
:1012B6000030C33BC40A08008B3E860021308701FC
:1012C600873D010808002000EC01761CD22A761022
:1012D60004302100D000043020006C020318D22A0A
:1012E600892789310108F9006C086C076C07383EBC
:1012F6008600403FAC00413FAD00423FAE0079085A
:10130600E02389312808AF002908B0002A08B10077
:10131600692589310318F62932268931DA26893179
:101326007908E02389312808D9002908DA002A0833
:10133600DB00EF23893171268931692589316C08F3
:101346000318B329342789317908E02389313226F5
:101356008931412689313A268931412689317F2AC8
:101366007D278931013881003226893196268931D7
:101376003A268931D1268931322689312D2789317C
:101386006C08663E86000108E0238931AC26893167
:10139600952589314E2789310D2589313B08CD00A8
:1013A6003C08CE003D08CF005F24893132268931C2
:1013B6007127893103278931A72789310F27893179
:1013C6003A268931DA26893132268931CA26893187
:1013D600EF238931632789310D258931E12689314A
:1013E600552789317F2A7908E02389312808AC00FE
:1013F6002908AD002A08AE0032268931403FAF00E9
:10140600413FB000423FB100692589317908031890
:10141600702AE02389311627893132268931CA2676
:101426008931EF23893171268931692589316C0823
:1014360003182B2A342789317908E023893132268B
:101446008931412689313A268931412689317F2AD7
:101456007D278931023881003226893196268931E5
:101466003A268931D12689316C08663E86000130DC
:1014760087000108E0238931AC2689319525893119
:101486004E2789310D2589313B08D6003C08D70007
:101496003D08D80032268931CA268931EF238931A1
:1014A600322689314127893103278931A727893196
:1014B6000F27893132268931DA2689313A26893150
:1014C600CA268931EF238931632789310D25893170
:1014D600E1268931552789317F2AE0238931322651
:1014E6008931412689313A268931412689316C086C
:1014F600B33E8600FC308105892789316C08BC3EE5
:1015060084000130850000080106031DA22A6C082C
:10151600B33E860087010119C72A6C355E3E8600F8
:1015260001308700810A6C355E3E86001030010668
:10153600031DC72A26278931E9268931C72A6C3532
:101546005F3E8600013087006C355E3E8327893119
:101556006C08663E86006C355F3E840000082300FA
:10156600D80020006C355E3E840000082300580732
:10157600810020006C355E3E86008101810A6C0880
:10158600B33E8600870101116C08BC3E860001301F
:1015960087006C085A3E83278931EC0A6E292100A0
:1015A6002C1C0800D10A2C102000EC012100500848
:1015B600031DAC2B0330D000972BE12689312D2754
:1015C60089313A268931403FCD00413FCE00423F26
:1015D600CF005F2489313A268931712789319F26C8
:1015E60089310A2489315C08F90068268931482640
:1015F600893197278931C32689313A268931CA2606
:1016060089317908E023893116278931EF23893119
:101616006A278931952589318E268931682689314F
:101626001D27893197278931F62689315F2489312B
:10163600472789310A2489316C35262689318C2B36
:10164600E1268931DA2689313A268931CA26893155
:10165600EF2389313A268931412789319F268931FD
:101666000A2489315C08F9006826893148268931BF
:1016760097278931C32689313A268931CA26893185
:101686007908E023893116278931EF2389316A27C2
:101696008931952589318E268931682689311D271C
:1016A600893197278931F62689315F248931472781
:1016B60089310A2489316C35262689318C2B3A26C4
:1016C6008931403FDC00413FDD00423FDE000A2415
:1016D60089315C08F9002300D8000330D901D835D8
:1016E600D90DDA008430DB0058085A0786005908FD
:1016F6005B3D870020006C354C3E84000130850040
:10170600403F803F413F813F6C354D3E8600013072
:101716008700F1258931D9005808860059088700C5
:10172600803081002000EC0A043020006C0203188F
:10173600AD2B6C08B33E86008701010803390319F7
:10174600622B013A0319E02A033A0319232B952B3E
:10175600952BD003761D08003B00C301C401B301DD
:10176600B401A301A401930194018331B423893107
:101776002000EC0104306C02031808006C083427C2
:1017860089316C354C3E8600013087000030C03F01
:10179600C13F2300D801D901DA0120003A26893158
:1017A600D126893132268931D126893126278931B8
:1017B6008500E9268931EC0ABD2BF400A0008E30A5
:1017C600A101A201A300A401C2272008A8002108A4
:1017D600A9002208AA00080058085704560403194D
:1017E600F62B8030D8065908CA005A08CB005B0889
:1017F600CC005608CD005708CE005808CF005F240D
:101806004A08D6004B08D7004C08D80008003A27EB
:1018160089310310610D620DE8006808031D182C5C
:10182600DC01DD01DE01DF0108003A2789311730CE
:10183600E236E10CE00C890B1B2C6008E300DD1797
:10184600DE015C08E4005D08E5005E08E6008E3017
:10185600E701E802E81F3B2C6808803A8F3E031C2C
:10186600132CE736E60CE50CE40CE80F342C482C78
:10187600183068020318132C68080319482CE4353D
:10188600E50DE60DE70DE8033F2C63080319562C1A
:10189600E409E509E609E709E40A0319E50A031973
:1018A600E60A0319E70A6708DF006608DE0065082E
:1018B600DD006408DC0008004A08D0004B08D100AF
:1018C6004C08D2000310510D520DD5004D08D00022
:1018D6004E08D1004F08D2000310510D520DD4000E
:1018E60055080319822C54085502540803188A2CEB
:1018F600D0005508D00219305002031C892C4D081F
:10190600CA004E08CB004F08CC0008005408031943
:101916000800550854020318982C5508D00054089E
:10192600D00219305002031808000630D300CC1B31
:10193600D317CF1B5317CB17CC01CE17CF015408A3
:1019460055020318BD2CCD35CE0DCF0DD40354084A
:1019560055060319B82CD303530807390319B82CB5
:10196600A62CCC36CB0CCA0CD50A5508540603193E
:10197600D72CB42C550854020318D72CCA35CB0DD6
:10198600CC0DD503540855060319D32CD30353089D
:1019960007390319D32CC12CCF36CE0CCD0CD40A63
:1019A60055085406031DCF2CD31FE22CFF30CA0660
:1019B600CB06CC06CA0A0319CB0A0319CC0A531F55
:1019C600EA2C772789310319CE0A0319CF0AD301E6
:1019D6004A08CD074B08CE3D4C08CF3DCF1FFB2C08
:1019E600772789310319CE0A0319CF0AD301D30AFF
:1019F6004D08A0004E08A1004F08A2005508A300FC
:101A06005308A400C2272008CA002108CB002208D8
:101A1600CC0008003E08C1003F08C2004008C300D1
:101A26000310420D430DC8004808031D1B2D8F2FC0
:101A36003B08C1003C08C2003D08C3000310420D2C
:101A4600430DC9004908031D292D8F2F8930C50173
:101A5600C601C7014907C100C8024008C9003D08C0
:101A6600C9068030C9051830BF17C001BC17BD01B3
:101A7600C400C535C60DC70D3D084002031D492DDE
:101A86003C083F02031D492D3B083E02031C522D14
:101A96003B08BE023C08BF3B3D08C03B4514BE3573
:101AA600BF0DC00DC40B3C2D4508A0004608A10083
:101AB6004708A2004808A3004908A400C227200836
:101AC600BB002108BC002208BD000800AE1F782D0F
:101AD6002C08003CAC002D08031C2D0F003CAD006B
:101AE6002E08031C2E0F803CAE00B11F872D2F0839
:101AF600003CAF003008031C300F003CB00031083A
:101B0600031C310F803CB1008030AE06B1063108AF
:101B16002E02031D080030082D02031D08002F08A1
:101B26002C0208002C08B2002D08B3002E08B400C1
:101B36000310330D340DB5003508031DA32D932F67
:101B46002F08B2003008B3003108B4000310330D7B
:101B5600340DBA003A08031DB12D932F3A087B3E87
:101B6600B5072E08BA003108BA068030BA05FF302C
:101B7600AD17B017AF05B0050730B101B601B70113
:101B8600B801B9002C1CC92D5C278931AE36AD0CC5
:101B9600AC0CAF35B00DB10DB90BC52D0930B90080
:101BA6002C1CD72D5C278931AE36AD0CAC0CB83663
:101BB600B70CB60CB90BD32D3608A0003708A10018
:101BC6003808A2003508A3003A08A400C227200856
:101BD600AC002108AD002208AE0008000108230071
:101BE600D80020006C35B43E8600403F2300D90063
:101BF600413FDA00590886005A08870058088100D4
:101C060020006C354C3E8600013087000108230019
:101C1600D80020006C35443E8600403F2300D900A2
:101C2600413FDA00590886005A08870058088100A3
:101C360020006C35AC3E860001308700403F230013
:101C4600D800413F08004C3E8600013087005C0802
:101C5600C03F5D08C13F6C354D3E860008006C08EC
:101C66006C076C07383E86000130870008006C0858
:101C76006C076C07A03E8600870108002808C03F55
:101C86002908C13F2A08C23F08008430593D850013
:101C9600003FDA00013FDB007908DC000530DD019A
:101CA600DC35DD0D5C07840084305D3D8500003F3A
:101CB600DE00013FDF005A085E022000A800230074
:101CC6005B085F3B2000A90008002300D800033012
:101CD600D901D835D90D58078400080056082100C7
:101CE600B700200057082100B8002000580821003E
:101CF600B90037082000AC00210038082000AD00EC
:101D0600210039082000AE00CD30AF004C30B000C5
:101D16003D30B10008002C08E9002D08EA002E0825
:101D2600EB0079080800403F2300D800413FD90066
:101D3600423FDA0020000800C23F6C086C076C07BF
:101D4600A03E8600403FDC00413FDD00423FDE0012
:101D560008002808BB002908BC002A08BD0040303E
:101D6600AC01AD01AE00210037082000AF00210014
:101D760038082000B000210039082000B100080012
:101D86002808AF002908B0002A08B1000800403F23
:101D9600D900413FDA00423FDB0008002300580823
:101DA600C03F5908C13F5A08C23F20000800403FC3
:101DB600D600413FD700423FD80008006C086C07A8
:101DC6006C07A03E8600013087000800803F810036
:101DD6006C08663E8600023081006C08B33E8600C1
:101DE6008701011508002808CD002908CE002A0819
:101DF600CF006908CA006A08CB006B08CC0008004F
:101E0600C23F21006E082300D800D836D8365808BD
:101E16002000A800A90108002808BB002908BC006A
:101E26002A08BD0008002808D6002908D7002A0875
:101E3600D80008008430593D8500003F2000A800E6
:101E4600013FA90008006C355E3E86006C355F3E9A
:101E560084000134403FCA00413FCB00423FCC00E2
:101E66000800B33E8600FC308701810508005C0847
:101E7600E0005D08E1005E08E20008005608C03F89
:101E86005708C13F580808004A08DC004B08DD0027
:101E96004C08DE0008002C08BE002D08BF002E08E6
:101EA600C00008003B08C03F3C08C13F3D08C23F98
:101EB60008002F08B6073008B73D3108B83D0800BE
:101EC6005608BE005708BF005808C000080056084C
:101ED600AC005708AD005808AE0008004A08C03FDD
:101EE6004B08C13F4C080800FF30CD06CE06CF0692
:101EF600CD0A0800B33E860087010108FC390800B8
:101F06008400013085000008810008006C085A3EF4
:101F16008600013087000800BB01BC01BD01080036
:101F2600AC01AD01AE0108002808A0002908A100F7
:101F36008E30A201A300A401C2272008A800210810
:101F4600A9002208AA000800F401A91FB12FA809B8
:101F5600A909A80A0319A90AF401F40A2808A00085
:101F66002908A1008E30A201A3007408A400C2278C
:101F76002008A8002108A9002208AA0008002308B2
:101F86000319CA2F220821042004031DD22FA00101
:101F9600A101A2010800A30AA236A10CA00CFE30E2
:101FA60022050319E02FCE2FA30AA00A0319A10ABE
:101FB6000319A20AA236A10CA00CFF3022050319B0
:101FC600ED2FD72F02302302031CEF2FA303A035DA
:101FD600A10DA20DA11FE52F231CA113A3362308D3
:101FE600A700A601A5012508A0042608A104270824
:0A1FF600A2042408031DA21708002E
:020000040001F9
:04000E00E4F9FBDF37
:00000001FF
