:040000008031132810
:100008007E1480318A31582280318A316E228031C3
:100018008B31512380318F316F277E100900803159
:1000280015286430FB0021000230EC00ED01EE01E0
:10003800EF0122000130E6008C30E701E801E90118
:10004800EA01EB01EC01ED01840021308500643008
:10005800FE00FF018A3162228031F601F701F801C2
:10006800F901FA012000A030EA01EB01EC0184005B
:10007800003085004430FE00FF018A316222803161
:1000880020308400013085004630FE00FF018A31AF
:1000980062228031A0308400013085003430FE00B7
:1000A800FF018A31622280317E1020005B283B00EC
:1000B8009401A401B401C4019301A301B301C301D4
:1000C8000C27803103303D0092000430A000053039
:1000D800A1000630A200FF3020009B0005309C00E4
:1000E800F0302100990098010E118E100E100C119D
:1000F80023000E118E100E100C1120000E118E1000
:100108000E100C113B00C201B201A2019201C10103
:10011800B101A10191013F30C600B600A6009600CA
:10012800FF30C500B500A5009500CE01BE01AE01A7
:100138009E0121008E1123008E11C0308B001F27D5
:100148008031D4208031AC208D31EE258031A52836
:100158002100561C0800D201D3015610780820004F
:10016800A0002E30002780318730213D850000080F
:100178003B00C400B400A400940078082000A0004C
:100188002D30002780318730213D850000083B0055
:10019800C300B300A30093000C2721009D1408009E
:1001A8002300D70120006A1C462A6A102100DC01BE
:1001B8000330DB000430230057020318462A57088F
:1001C800E03E8600870101082000EC002300742629
:1001D8008031403F2000AD00413FAE00423FAF00BC
:1001E8006C08492380312808B0002908B1002A0882
:1001F800B200D023803103186229E42580315726C4
:1002080080316C08492380312808DA002908DB008E
:100218002A08DC005923803103268031D02380311D
:10022800031820292300B726803149238031230071
:100238005708C4258031DC29C92680310138F525C5
:100248008031EE258031A7268031742680319F26A3
:1002580080312300122780314923803120268031C4
:10026800AA248031DE268031742380313C08CE00F8
:100278003D08CF003E08D000FC23803123005708FA
:100288005707DE258031FA2680318D2680314425B6
:10029800803198268031EE25803187013F268031D4
:1002A8002300742680313726803159238031EC268B
:1002B80080317423803147268031DC296C0849233A
:1002C80080312808AD002908AE002A08AF00E425CF
:1002D8008031B000413FB100423FB200D0238031AD
:1002E8006C080318D02949238031F3268031E4258E
:1002F8008031872680315923803103268031D023ED
:100308008031031891292300B72680314923803191
:1003180023005708C4258031DC29C92680310238DA
:10032800F5258031EE258031A726803112278031CE
:100338004923803120268031AA248031DE2680316D
:10034800742380313C08D7003D08D8003E08D90006
:10035800E4258031872680315923803123005708CE
:100368005707DE258031D82680318D2680314425F7
:10037800803198268031E425803157268031EE255A
:1003880080313726803159238031EC26803174231F
:10039800803147268031DC294923803123005708E2
:1003A800C425803123005708BF3E8600FC308105F4
:1003B80023005708E03E860087015708483E84001E
:1003C8000130850000080106031D0E2A5708BF3EAC
:1003D80086000119392A5735663E860001308700A4
:1003E800810A5735663E860010300106031D392AFA
:1003F8005735663E86005735673E84000130803F9A
:10040800810057088D311F2580315708BF3E86006F
:100418000115392A5735673E860001308700573560
:10042800663E840001308500000881005708EC3ED4
:10043800860087015735673E840000082100E400E4
:1004480023005735663E84000008210064078100B8
:1004580023005735663E8600013087008101810AF6
:100468005708BF3E8600870101115708483E86009D
:10047800013087005708E03E8400850100088100AC
:10048800D70ADE282100381C0800DD0A38102300AE
:10049800D7012100DC0A5B08031D472B7B085C029F
:1004A8000318472B0330DB00322B5D2680319F2653
:1004B8008031EE2580318701403F2000CE00413F4A
:1004C800CF00423FD000FC238031EE2580318701E8
:1004D8002000FA268031C23F832A5D2680313F26DC
:1004E8008031EE25803187013726803159238031CC
:1004F800EE25803187012000D8268031C23FEE25C5
:1005080080318701403F2000DD00413FDE00423F4F
:10051800DF005F2580315D08EC007A268031E60037
:10052800013FE70020006C082100E8002F30E901B6
:10053800E835E90D680784008730693D8500003F8C
:10054800EA00013FEB0066086A022000A8002100CB
:1005580067086B3B2000A900B42580312808B0004B
:100568002908B1002A08B200EE2580318701372614
:1005780080316C0849238031F3268031592380313A
:100588005708AD005808AE005908AF00AA248031BA
:100598002D082300D40020002E082300D5002000B9
:1005A8002F082300D60020006C087A26803120000E
:1005B800A800013FA900B42580312808CE002908E9
:1005C800CF002A08D000230054082000CB002300C5
:1005D80055082000CC00230056082000CD00FC233D
:1005E80080314B08DD004C08DE004D08DF005F2538
:1005F8008031B026803120005D08C03F5E08C13FD1
:100608006C0803190F2B23005735413E86007030C4
:100618000102031C142BB02680310030C03FC13FBB
:100628005735413EC0268031B43E65268031403E74
:10063800C0268031383E65268031AC3E86000130C8
:100648008700403F2100E400413FE5006408860040
:1006580065088700803081002300D70A0430230012
:100668005702031808005708BF3E86008701010893
:1006780003390319832A013A0319592A033A03193A
:10068800712A832A832ADB0308002000AC00A0001B
:100698008E30A101A201A300A40106252008A8000C
:1006A8002108A9002208AA0008005908580457047C
:1006B8000319602B8030D9065A08CB005B08CC00A0
:1006C8005C08CD005708CE005808CF005908D00064
:1006D800FC234B08D7004C08D8004D08D900080067
:1006E8003F08C2004008C3004108C4000310430D7E
:1006F800440DC9004908031D822B172F3C08C2006E
:100708003D08C3003E08C4000310430D440DCA0051
:100718004A08031D902B172F8930C601C701C8014D
:100728004A07C200C9024108CA003E08CA0680300A
:10073800CA051830C017C101BD17BE01C500C635AE
:10074800C70DC80D3E084102031DB02B3D084002ED
:10075800031DB02B3C083F02031CB92B3C08BF0209
:100768003D08C03B3E08C13B4614BF35C00DC10D16
:10077800C50BA32B4608A0004708A1004808A20003
:100788004908A3004A08A40006252008BC0021083F
:10079800BD002208BE000800AF1FDF2B2D08003C5B
:1007A800AD002E08031C2E0F003CAE002F08031CC2
:1007B8002F0F803CAF00B21FEE2B3008003CB0007A
:1007C8003108031C310F003CB1003208031C320F02
:1007D800803CB2008030AF06B20632082F02031DFB
:1007E800080031082E02031D080030082D020800F9
:1007F8004B08D1004C08D2004D08D3000310520D0D
:10080800530DD6004E08D1004F08D2005008D3002F
:100818000310520D530DD500560803191F2C550807
:10082800560255080318272CD1005608D102193052
:100838005102031C262C4E08CB004F08CC00500850
:10084800CD0008005508031908005608550203187A
:10085800352C5608D1005508D10219305102031819
:1008680008000630D400CD1BD417D01B5417CC1762
:10087800CD01CF17D0015508560203185A2CCE3592
:10088800CF0DD00DD503550856060319552CD403A2
:10089800540807390319552C432CCD36CC0CCB0CF6
:1008A800D60A560855060319742C512C56085502B9
:1008B8000318742CCB35CC0DCD0DD6035508560630
:1008C8000319702CD403540807390319702C5E2CB3
:1008D800D036CF0CCE0CD50A56085506031D6C2C05
:1008E800D41F7F2CFF30CB06CC06CD06CB0A0319CC
:1008F800CC0A0319CD0A541F872C06278031031907
:10090800CF0A0319D00AD4014B08CE074C08CF3DB3
:100918004D08D03DD01F982C062780310319CF0AE7
:100928000319D00AD401D40A4E08A0004F08A10028
:100938005008A2005608A3005408A4000625200861
:10094800CB002108CC002208CD0008002D08B300F8
:100958002E08B4002F08B5000310340D350DB6006D
:100968003608031DB82C1B2F3008B3003108B4001B
:100978003208B5000310340D350DBB003B08031DCC
:10098800C62C1B2F3B087B3EB6072F08BB0032083E
:10099800BB068030BB05FF30AE17B117B005B105F7
:1009A8000730B201B701B801B901BA002D1CDE2C1D
:1009B800E5268031AF36AE0CAD0CB035B10DB20DB9
:1009C800BA0BDA2C0930BA002D1CEC2CE526803144
:1009D800AF36AE0CAD0CB936B80CB70CBA0BE82C68
:1009E8003708A0003808A1003908A2003608A3007B
:1009F8003B08A40006252008AD002108AE00220807
:100A0800AF000800230803190E2D22082104200432
:100A1800031D162DA001A101A2010800A30AA236F8
:100A2800A10CA00CFE3022050319242D122DA30AB7
:100A3800A00A0319A10A0319A20AA236A10CA00C44
:100A4800FF3022050319312D1B2D02302302031C10
:100A5800332DA303A035A10DA20DA11F292D231C01
:100A6800A113A3362308A700A601A5012508A00401
:100A78002608A1042708A2042408031DA2170800B9
:100A8800AB01A91F4E2DA809A909A80A0319A90A8B
:100A9800AB01AB0A2808A0002908A1008E30A201EA
:100AA800A3002B08A40006252008A8002108A900F7
:100AB8002208AA000800D12680310310620D630DB8
:100AC800E9006908031D6D2DDD01DE01DF01E0018C
:100AD8000800D12680311730E336E20CE10C890B8F
:100AE800702D6108E400DE17DF015D08E5005E088F
:100AF800E6005F08E7008E30E801E902E91F902D63
:100B08006908803A8F3E031C682DE836E70CE60C2E
:100B1800E50CE90F892D9D2D183069020318682D01
:100B2800690803199D2DE535E60DE70DE80DE90384
:100B3800942D64080319AB2DE509E609E709E809CE
:100B4800E50A0319E60A0319E70A0319E80A680817
:100B5800E0006708DF006608DE006508DD000800C1
:100B68002808A0002908A1008E30A201A300A40132
:100B780006252008A8002108A9002208AA000800C4
:100B880057075707A03E8600870120002808C03F66
:100B98002908C13F2A08C23F2300570857075707AB
:100BA800AC3E860020002808C03F2908C13F2A081B
:100BB800C23F08005707A03E8600870120000800B2
:100BC8002300570857075707A03E86008701403F74
:100BD800200008002300570857075707AC3E860037
:100BE80008008100570857075707A03E8600403F76
:100BF8002100E400413FE500423FE60008005708B5
:100C08002100C300200058082100C4002000590812
:100C18002100C50043082000AD0021004408200041
:100C2800AE00210045082000AF00CD30B0004C30A8
:100C3800B1003D30B20008002808BC002908BD00FA
:100C48002A08BE004030AD01AE01AF0021004308C4
:100C58002000B000210044082000B1002100450810
:100C68002000B2000800403F2000DA00413FDB00CE
:100C7800423FDC000800403F2000D700413FD80039
:100C8800423FD90008002300570857075707A03EDE
:100C980086000130870020003C08C03F3D08C13F66
:100CA8003E08C23F0800D700413FD800423FD90064
:100CB8000800570857075707A03E860001308700ED
:100CC80008008600403F2100E500413FE600650836
:100CD80086006608870064088100230057350800ED
:100CE800570857075707A03E860008002100E40070
:100CF8002D30E501E435E50D640784008730653D56
:100D08008500003F0800DA00413FDB00423FDC007D
:100D18000800C23F7B082100E400E436E43664089A
:100D28002000A800A90108002808BC002908BD0067
:100D38002A08BE000800403F2000CB00413FCC00FD
:100D4800423FCD00080021006408C03F6508C13F4C
:100D58006608C23F2300080023005735403E86003E
:100D68000130870008005708BF3E8600FC30870125
:100D7800810520006C080800860001308700010802
:100D88002100E40023005735080023005708BF3E20
:100D9800860087010108FC3908005D08E1005E084B
:100DA800E2005F08E30008005708C03F5808C13F49
:100DB800590808002D08BF002E08C0002F08C100E0
:100DC80008003008B7073108B83D3208B93D0800B7
:100DD8005708BF005808C0005908C1000800280873
:100DE800D7002908D8002A08D90008004B08C03FB6
:100DF8004C08C13F4D080800A101A035A10D2007EE
:100E080084000800FF30CE06CF06D006CE0A0800C0
:100E18008030CF00BF00AF009F0008005708EC3EAD
:100E2800860001080800BC01BD01BE010800AD0133
:100E3800AE01AF01080021001114313020009800E4
:100E480003302200EE002000960197012100D7010F
:100E58000800003400341E3400341E3400341F34BB
:100E68000034203400342134003422340034233454
:100E78000034233400342434003425340034263438
:100E880000342734003428340034293400342B3417
:100E980000342C3400342D3400342E3400342F34F4
:100EA80000343134003432340034333400343434D0
:100EB80000343634003437340034393400343A34AA
:100EC80000343C3400343D3400343F340034413481
:100ED8000034423400344434003446340034483456
:100EE80000344A3400344C3400344E340034503426
:100EF80000345234003454340034563400345834F6
:100F080000345B3400345D3400345F3400346234C0
:100F1800003465340034673400346A3400346D3486
:100F28000034703400347234003475340034793449
:100F380000347C3400347F34003482340034863406
:100F48000034893400348D340034913400349434BE
:100F58000034983400349C340034A0340034A53470
:100F68000034A9340034AD340034B2340034B6341B
:100F78000034BB340034C0340034C5340034CA34BF
:100F88000034D0340034D5340034DB340034E03459
:100F98000034E6340034EC340034F3340034F934EB
:100FA800003400340134063401340D34013414346F
:100FB80001341B340134233401342A3401343234EB
:100FC80001343A340134433401344B340134543459
:100FD80001345D340134663401346F3401347934BA
:100FE8000134833401348D34013497340134A2340C
:100FF8000134AD340134B8340134C3340134CF344E
:101008000134DB340134E8340134F534013402347A
:1010180002340F3402341D3402342B3402343A348F
:10102800023449340234583402346834023478348F
:1010380002348834023499340234AB340234BD3477
:101048000234CF340234E2340234F5340234093441
:1010580003341D34033432340334483403345D34E8
:101068000334743403348B340334A3340334BB346F
:101078000334D4340334EE340334083404342334CE
:1010880004343F3404345C340434793404349734FD
:101098000434B5340434D5340434F5340434173402
:1010A8000534393405345C34053480340534A534CA
:1010B8000534CA340534F13405341934063442345D
:1010C80006346C34063497340634C3340634F034AA
:1010D80006341F3407344E3407347F340734B234AF
:1010E8000734E53407341A34083450340834883463
:1010F8000834C1340834FC340834383409347634BC
:101108000934B5340934F634093439340A347E34B0
:101118000A34C4340A340C340B3456340B34A23435
:101128000B34F0340B3440340C3492340C34E63441
:101138000C343D340D3495340D34F0340D344E34C4
:101148000E34AD340E3410340F3475340F34DC34AF
:101158000F3446341034B4341034233411349634F4
:1011680011340C341234853412340134133480347D
:101178001334033414348934143413341534A03438
:10118800153431341634C53416345E341734FA3411
:1011980017349B34183440341934E93419349734EB
:1011A8001A3449341B3400341C34BB341C347C34AA
:1011B8001D3441341E340C341F34DC341F34B13434
:1011C80020348C3421346D34223454342334403464
:1011D8002434333425342C3426342C342734333413
:1011E80028344034293454342A3470342B3493341A
:1011F8002C34BD342D34F0342E342A3430346D344C
:101208003134B83432340C34343469343534CE346F
:1012180036343D343834B634393439343B34C63452
:101228003C345D343E34FF343F34FF343F34FF34C4
:101238003F34FF343F34FF343F34FF343F34FF340E
:101248003F34FF343F34FF343F34FF343F34FF34FE
:101258003F344D3452341734C334103492348A3105
:10126800842A8A31882A8A31A82A8A31D72A8A3157
:06127800E32A8B310A2B72
:1014B0002000111F080021001C08F800561420000D
:1014C000111308006400013080010131FE02003078
:1014D000FF3B7F087E0403190034632A013021009A
:1014E000911E00392000911E0039091C08002300BC
:1014F0001D1D2D2B1908F2002000EA1401302100D7
:10150000DE00D201D3012D2B23001908F200382B65
:101510002000911E382B23001908F2007208031DC9
:101520009D2A02302100DE00E030DF000130D400CF
:10153000D5015D08FB00DD01382BCC307206031DA0
:10154000A52A03302100DE00382B2100DE01382BD4
:1015500023001908F200770821005502031DB22A62
:1015600076085402031CBE2A760877040319BE2AA3
:101570005F088600870172088100DF0AD40A031918
:10158000D50A7608043EF0000030773DF1005502A0
:10159000031DCC2A70085402031C382B76087704EC
:1015A0000319382B20006A144A238A31382B230070
:1015B0001908F200720B382B04302100DE001730BE
:1015C000F900CA01292B23001908F2007908203EEE
:1015D0008600013087007208810002307906031D01
:1015E000022B7908203E860001080319022B2100F6
:1015F0004A084B04031D022B0530DE006330FA005D
:10160000F903382B7908031D002B20006A174A23A1
:101610008A31002B23001908F2007A088C3EF00072
:101620002130F101F13D70088600710887007208D1
:101630008100F10122002208643CF000031CF10348
:101640007A067104031D2B2B04302100DE000130CB
:10165000CA00CB01382BFA03382B21005E08840026
:10166000063004020318382B89310435333E8200DA
:1016700021005308803AF00089307002031D422B8C
:1016800061305202031C080020006A152100D201BB
:10169000D30108002100DE01D201D30120006A112C
:1016A00008002100111C08002000111C0800111066
:1016B000C92BEE012000960197012100D70A1030B6
:1016C0005702031C08002200EE01D9238B31E523C9
:1016D0008B31542480303B00CB00BB00AB009B001F
:1016E000080020008C1E762B0130772B0030F5008F
:1016F0002100111F7D2B01307E2B00307506031950
:101700003E1419258B312100D20A0319D30A603007
:101710005206093003195306031D942B6130D20081
:101720000930D30020006A152100B90A0319BA0A4A
:101730003814E8303906033003193A06031D08004F
:10174000B901BA01BB0AB8143C303B06031D0800BE
:10175000BB01BC0A38153C303C06031D0800BC0127
:10176000BD0AB81508000E16FF3020009700F530AE
:10177000960002302200EE00080023009E16210091
:101780001116FC3020009700DF3096002200EE0199
:10179000080022006E08003A0319712B013A031960
:1017A000B32B033A0319BD2B013A03195A2B592BBA
:1017B000080021000C1623000C160D3021009D009E
:1017C00070309E0020001113080015303C00950079
:1017D00021008E16903023009D001E129F011E15C1
:1017E0009C0107309B00210091160D30F601F60A8E
:1017F000F7012200B9009330B8000D30BB00A330D0
:10180000BA000D30BD00B330BC000D30BF00C33096
:10181000BE000D302300B5009430B4000D30B70089
:10182000A430B6000D30B900B430B8000D30BB00A4
:10183000C430BA000D30AD009F30AC000D30AF00A9
:10184000AF30AE000D30B100BF30B0000D30B3008E
:10185000CF30B200F301043073020318080073089C
:101860001F258B317335663E860001308700733546
:10187000673E840001308500803F81007308BF3ED1
:10188000860087010111F001F101F201730873076D
:101890007307AC3E0A258B31730873077307A03EAC
:1018A0000A258B31F30A2B2C2200EE012100BD0109
:1018B000BC01BB01B80119258B3111102100111495
:1018C0000B1722000E1621000E1223009E169D17E4
:1018D0001E1209303D00A4004E302100DA00230022
:1018E0001E141E1C762C23001E17782C23001E139A
:1018F00020006B11EB111730F601F60AF701FA0020
:1019000011307A02031C8D2C7A08BC3E860001300F
:101910008700FE308100FA03802CAA302300CC001F
:10192000FA012100C601C70106307A020318BE2C55
:10193000FE30F0007A08F2248B31CB3EFE248B314E
:10194000AA3825258B31F2248B31CA3EFE248B31F7
:10195000553825258B31F2248B31CB3E12258B3126
:101960000318C70AFE30F0007A08F2248B31CA3E11
:1019700012258B310318C70AFA0A942C4708220053
:10198000CF00210046082200CE00FA014F08AA38F5
:101990002300BF0022004F0855382300BE0022005C
:1019A0004E08AA382300BD0022004E0855382300F7
:1019B000BC001030FA000B307A02031C08007A08D1
:1019C0004E3E8600013087008930F4007A083D3CA5
:1019D000F300031CF40384007408850000088100F0
:1019E000FA03DB2CF200F10170087218F107F035F0
:1019F000F2367208031DF42C7108080086000130CD
:101A000087007A082D3E840089300318013E850046
:101A10000008080086007008C03F7108C13F7208C6
:101A2000C23F080086000130870001082100C60778
:101A30000800FE30200097000B3096000800EC3EB6
:101A4000860002308701810008008100FE30F0002E
:101A50007A0808008F2D20006B1908006B08FC39EC
:101A60000138EB0021302100CF00EE30CE002130D4
:101A7000CD00EA3039278D31533003193A0203186B
:101A80004E2D15278D31031D4E2D46278D31933058
:101A90002B278D31031C4E2DFC30EB05213021000E
:101AA000CF00E830CE002130CD00E43039278D3131
:101AB000523003193A02031C6A2D15278D31031D7C
:101AC0006A2D46278D3192302B278D3103186A2DD0
:101AD000FC30EB056B080339033A031D08002100B5
:101AE000D901FE3023009A00D3302100DA00D00162
:101AF000D10122008E152100911223009E16210093
:101B00001116080020006B150230220069278D3164
:101B10000030C03FC13FA12D20006B11842D220059
:101B20002408003A0319952DA02D2308013A031922
:101B30002B2D033A0319822D013A03198C2DA02D68
:101B40000800CC3023009A00C0258D314E3086002D
:101B5000013063278D312000B90016001A00B90B3F
:101B6000AD2D2830B80057268D3121082200CF0036
:101B7000200020082200CE0001302100D900DF2DF6
:101B80002B30860001308700403F2200DF00413FBC
:101B9000E000423FE100433FE2003008E4002F084C
:101BA000E3002A08D8002508013ED3002408D2000B
:101BB0002308D1005008183EE500D7010800FF3087
:101BC00020009700A530960001302200EE000E1292
:101BD0008E152100C800C9019112080020006A1F5B
:101BE00008006A13FC30EB055230220035064D30F8
:101BF000031936060319012E350F1E2E360A031D52
:101C00001E2E92303106103003193206C3300319EC
:101C100033061730031934060319192E310F1E2EFF
:101C2000320A031D1E2E330A031D1E2E340A031D05
:101C30001E2E20006B08FC390138EB0020006B08D9
:101C40000339013A031D422E2030860001306327FC
:101C50008D31BE0016001A00BE0B2A2E6430B8006B
:101C600057268D312200210820002106031D3C2E1D
:101C70002200200820002006031D422E6B08FC399C
:101C80000238EB006B080339023A031D08002200FA
:101C90002508103A0319532E303A0319542E103ADE
:101CA0000319552E562E2A2D882EFE2E0800CD30D3
:101CB0002100C6001730C701F90002307902031C69
:101CC0006B2E7908203E860087010108C60703189D
:101CD000C70AF9035D2E20003808FF3EF9002208EC
:101CE0003802FA007A087902031C7F2E7A08F92755
:101CF0008D312100C6070318C70AFA0A722E210087
:101D000047082000A100210046082000A00008008C
:101D1000E72E0130D00020006B0CBA00BA0C3A0C50
:101D20000139BB00B3308600213087003B088100B9
:101D3000FD2E1330D00020000130BA01BB00B230BC
:101D40008600213087003A08C03F3B08C13F803001
:101D5000BA00B0305C278D310430BA00AE305C2759
:101D60008D3121302100CD00AA30CC0086004D08F5
:101D700087000130C03F0030C13FC23FC33F043045
:101D8000200055278D315C313A08C03F3B08C13FE8
:101D9000013055278D315A313A08C03F3B084F2753
:101DA0008D3158317608C03F77084F278D3100308C
:101DB0005631C03F4F278D3155318101FD2E023004
:101DC00069278D317608C03F7708C13FFD2E22007C
:101DD0002408003A0319F02E103A0319F82EFD2EAC
:101DE0002308603A0319992E903A0319DF2EFD2E2D
:101DF0002308003A0319892EFD2EA12D092FEE305C
:101E0000860021308700403FF600413FF700D001B7
:101E1000142F22002408003A03190F2F142F23082F
:101E2000F03A0319FF2E142FA12D6B080339BA00C5
:101E3000BA0A6B083A06FC393A06EB0021004E0854
:101E400086004F0887001600523A2000BA0016009C
:101E50004D3ABA0408003A02413FBA0010303A3B0A
:101E6000423FBA00C3303A3B433FBA0017303A3BD7
:101E70000800CC004E0886004F088700403F200035
:101E8000BA00413FBB004D303B02080021004C0826
:101E900086004D088700403F2000BA000800C13F7F
:101EA0008C308600213087000800BA008C30BB01DE
:101EB0008600213087000800BB0186003A08C03F39
:101EC0003B08C13F080087002030840000308500B7
:101ED0001834D000B230860021308700080021007D
:101EE000111E08002000111E0800DE2F48034904BF
:101EF000031D802FC801C901CC3023009A000800BF
:101F0000013023009A0065302100DA000230D00150
:101F1000D101D900080000305102193003195002D4
:101F20000318962FEE270319D10A080091162200F4
:101F30000E1623009E122100111222008E1108009D
:101F4000003051021930031950020318962FEE2762
:101F50008D310319D10A163050065104031D0800B3
:101F60002200500803190800210048084904031DF5
:101F700008000330D9002730D80008005808F92796
:101F80008D3123009A00F10122005008283CF00016
:101F9000031CF10321005808F200F30171087306D5
:101FA000031DD42F70087206031DDC2F0230D900E8
:101FB0000130C800C9010800D803080021005908F1
:101FC000003A03198B2F013A0319762F033A0319AC
:101FD000A02F013A0319BE2FED2F08005A088600E2
:101FE00001308700010823009A002100DA03D00A9B
:101FF00008008C3E860021308701873D01080800DB
:020000040001F9
:04000E00E4F9FBDF37
:00000001FF
