:040000008031132810
:100008007E1480318A31F82280318B310E23803181
:100018008C31AF2480318F316F277E1009008031F9
:10002800152821006430EF0022000130E40002307E
:10003800E501E601E701E801E901EA01EB01EC006D
:100048008C30ED01EE01EF01840021308500643031
:10005800FE00FF018B3102238031A030F601F70149
:10006800F801F9018400003085004D30FE00FF01E1
:100078008B310223803120308400013085004430E8
:10008800FE00FF018B3102238031A0308400013053
:1000980085003430FE00FF018B31022380317E1051
:1000A800200056283B009401A401B401C401930127
:1000B800A301B301C3011827803103303D0092002A
:1000C8000430A0000530A1000630A200FF30200057
:1000D8009B0005309C00F0302100990098010E111A
:1000E8008E100E100C1123000E118E100E100C1114
:1000F80020000E118E100E100C113B00C201B2012F
:10010800A2019201C101B101A10191013F30C600D4
:10011800B600A6009600FF30C500B500A500950002
:10012800CE01BE01AE019E0121008E1123008E1169
:10013800C0308B00D1258031B3208031E6208B314F
:10014800EC23803180303B00CB00BB00AB009B0030
:100158006F218031BF208D31EB258031AC28210003
:100168000C1623000C160D3021009D0070309E00E7
:1001780020001113080021005C1C0800D801D901D7
:100188005C105D08F400C7301E2780318730753D4C
:10019800850000083B00C400B400A40094002100BE
:1001A8005D08F400C6301E2780318730753D850014
:1001B80000083B00C300B300A300930018272100E8
:1001C8009D14080015303C00950021008E169030D3
:1001D80023009D001E129F011E159C0107309B00E5
:1001E800210091160D30ED01ED0AEE012300B1005A
:1001F8009330B0000D30B300A330B2000D30B5001D
:10020800B330B4000D30B700C330B6000D30A900CC
:100218009430A8000D30AB00A430AA000D30AD001A
:10022800B430AC000D30AF00C430AE000D30A100CA
:100238009F30A0000D30A300AF30A2000D30A50004
:10024800BF30A4000D30A700CF30A600003020003A
:100258000C1901302100BF00003020000E180130B9
:100268002100C000003020008E1801302100C1009C
:10027800003020000E1901302100C200F4010430C2
:1002880074020318080074086C3E86000130870069
:10029800023081007435643E86007435653E840002
:1002A80001308500803F81007408C33E86008701C5
:1002B80001112000A001A101A201740874077407AC
:1002C800AC3EB6268031740874077407A03EB62683
:1002D8008031F40A43292000EC01761CD82A7610D4
:1002E8002100E5010330E400043020006C0203180B
:1002F800D82A6C08E93E8600870101082100E3003E
:10030800200079268031A626803121006308E92360
:1003180080312808AF002908B0002A08B100142449
:1003280080310318F7296C084E2680315B2680310E
:1003380021006308E92380312808D9002908DA0058
:100348002A08DB00F9238031ED258031142480311F
:100358006C080318B829AE268031E92380316C086F
:100368006C07D7258031702A0C27803101380A267E
:1003780080316C076C07A03E8600BE2680316C0871
:1003880000278031E92380312E2680314A258031AB
:10039800CA268031402480313B08CD003C08CE007D
:1003A8003D08CF009C2480316C084E268031F4260D
:1003B80080318B268031A6258031972680312726EB
:1003C80080315B2680317926803186005426803141
:1003D800F9238031E626803140248031712680312E
:1003E800D1268031702A21006308E923803128084A
:1003F800AC002908AD002A08AE006C084E268031F2
:10040800DF268031142480310318632A2100630811
:10041800E9238031ED2680317926803145268031E7
:10042800F9238031ED258031142480316C080318BC
:10043800262AAE268031E92380316C086C07D7253F
:100448008031702A0C27803102380A268031002733
:100458008031E92380312E2680314A258031CA2611
:100468008031402480313B08D6003C08D7003D0845
:10047800D8007926803145268031F92380316C08EF
:100488004E268031FA2680318B268031A625803190
:10049800972680316C084E2680315B2680316C08A7
:1004A800C526803154268031F9238031E6268031F3
:1004B8004024803171268031D1268031702A210074
:1004C8006308E92380316C086C07D72580316C08F4
:1004D800C33E8600FC3081056C08E93E8600870132
:1004E8006C08B83E84000130850000080106031D31
:1004F800A32A6C08C33E86000119CB2A6C35643EDA
:10050800860001308700810A6C35643E8600103011
:100518000106031DCB2A6C35643E86006C35653EAA
:1005280084000130803F81006C086C3E86000230F8
:1005380081006C08C33E860087010115CB2A6C3503
:10054800653E8600013087006C35643E84000130CA
:100558008500000881006C086C3E86006C35653E9D
:10056800840000082300D40020006C35643E840019
:10057800000823005407810020006C35643E860083
:100588008101810A6C08C33E8600870101116C084D
:10059800B83E8600013087006C08E93E840085017A
:1005A80000088100EC0A78292100381C0800E60AB6
:1005B80038102000EC012100E50A6408031DE72B30
:1005C8006F0865020318E72B0330E400D22B71266D
:1005D8008031BE26803127268031403FCD00413F03
:1005E800CE00423FCF009C24803127268031F4265C
:1005F8008031C23F7F30AC01AD004330AE006C08A3
:10060800C5268031DF268031142480316C08031818
:10061800362B9E2680317F30C13F4330C23F352B79
:10062800712680315B26803127268031542680311F
:10063800F923803127268031FA268031C23F6C08A1
:100648006C076C07AC3EA6268031AF01B001B10142
:10065800142480316C080318362B9E268031C13F44
:10066800C23F6C086C076C07AC3E86008701403FB0
:10067800DC00413FDD00423FDE006A2780315C0834
:100688002100E3007E268031D600013FD7002100FB
:1006980063082300D800C830D901D835D90D5807C8
:1006A80084008730593D8500003FDA00013FDB00B8
:1006B80056085A022000A800230057085B3B200078
:1006C800A900C12580312808AF002908B0002A08F0
:1006D800B100272680315426803121006308E923A0
:1006E8008031ED268031F92380315608AC00570857
:1006F800AD005808AE004A2580312C08E9002D08C5
:10070800EA002E08EB00210063087E2680312000D5
:10071800A800013FA900C12580312808CD0029087B
:10072800CE002A08CF006908CA006A08CB006B0807
:10073800CC009C2480314A08DC004B08DD004C08C2
:10074800DE006A2780316C35443E86000130870020
:100758005C08C03F5D08C13F6C35453E86001227E6
:100768008031A83E62268031443E860001308700F1
:1007780012278031B03E62268031A03E86000130CB
:100788008700403F2300D400413FD500540886002D
:1007980055088700803081002000EC0A04302000D2
:1007A8006C02031808006C08C33E86008701010824
:1007B80003390319352B013A0319EB2A033A0319B4
:1007C800142B352B352BE4030800F4002000A0007F
:1007D8008E30A101A201A300A4012C272008A800A3
:1007E8002108A9002208AA0008005808570456043E
:1007F8000319002C8030D8065908CA005A08CB00C3
:100808005B08CC005608CD005708CE005808CF002A
:100818009C244A08D6004B08D7004C08D80008008A
:10082800AE1F232C2C08003CAC002D08031C2D0FF8
:10083800003CAD002E08031C2E0F803CAE00B11FFB
:10084800322C2F08003CAF003008031C300F003C4E
:10085800B0003108031C310F803CB1008030AE0677
:10086800B10631082E02031D080030082D02031DB1
:1008780008002F082C0208003E08C1003F08C200EB
:100888004008C3000310420D430DC8004808031D6B
:100898004E2C242F3B08C1003C08C2003D08C30071
:1008A8000310420D430DC9004908031D5C2C242F79
:1008B8008930C501C601C7014907C100C8024008FF
:1008C800C9003D08C9068030C9051830BF17C001E6
:1008D800BC17BD01C400C535C60DC70D3D08400293
:1008E800031D7C2C3C083F02031D7C2C3B083E0268
:1008F800031C852C3B08BE023C08BF3B3D08C03B9F
:100908004514BE35BF0DC00DC40B6F2C4508A000A3
:100918004608A1004708A2004808A3004908A40007
:100928002C272008BB002108BC002208BD000800B5
:100938004A08D0004B08D1004C08D2000310510DD2
:10094800520DD5004D08D0004E08D1004F08D200F6
:100958000310510D520DD40055080319BF2C54082B
:10096800550254080318C72CD0005508D002193076
:100978005002031CC62C4D08CA004E08CB004F0875
:10098800CC0008005408031908005508540203183D
:10099800D52C5508D0005408D0021930500203183D
:1009A80008000630D300CC1BD317CF1B5317CB1727
:1009B800CC01CE17CF01540855020318FA2CCD35B7
:1009C800CE0DCF0DD403540855060319F52CD303C7
:1009D800530807390319F52CE32CCC36CB0CCA0C79
:1009E800D50A550854060319142DF12C550854023C
:1009F8000318142DCA35CB0DCC0DD5035408550654
:100A08000319102DD303530807390319102DFE2C91
:100A1800CF36CE0CCD0CD40A55085406031D0C2D28
:100A2800D31F1F2DFF30CA06CB06CC06CA0A0319EE
:100A3800CB0A0319CC0A531F272D06278031031927
:100A4800CE0A0319CF0AD3014A08CD074B08CE3D79
:100A58004C08CF3DCF1F382D062780310319CE0A09
:100A68000319CF0AD301D30A4D08A0004E08A100EC
:100A78004F08A2005508A3005308A4002C272008FB
:100A8800CA002108CB002208CC0008002C08B200BC
:100A98002D08B3002E08B4000310330D340DB50033
:100AA8003508031D582D282F2F08B2003008B30031
:100AB8003108B4000310330D340DBA003A08031D91
:100AC800662D282F3A087B3EB5072E08BA00310854
:100AD800BA068030BA05FF30AD17B017AF05B005BC
:100AE8000730B101B601B701B801B9002C1C7E2D41
:100AF800D8268031AE36AD0CAC0CAF35B00DB10D8B
:100B0800B90B7A2D0930B9002C1C8C2DD8268031D0
:100B1800AE36AD0CAC0CB836B70CB60CB90B882D8C
:100B28003608A0003708A1003808A2003508A3003D
:100B38003A08A4002C272008AC002108AD002208A0
:100B4800AE000800F401A91FB02DA809A909A80A38
:100B58000319A90AF401F40A2808A0002908A10029
:100B68008E30A201A3007408A4002C272008A80036
:100B78002108A9002208AA0008002808A0002908BE
:100B8800A1008E30A201A300A4012C272008A800F0
:100B98002108A9002208AA000800210011143130F8
:100BA8002000980008006C07A03E860087012808EE
:100BB800C03F2908C13F2A08C23F6C086C076C0770
:100BC800AC3E86002808C03F2908C13F2A08C23F1A
:100BD800080056082100C700200057082100C80057
:100BE800200058082100C90047082000AC00210057
:100BF80048082000AD00210049082000AE00CD3093
:100C0800AF004C30B0003D30B100080081006C08E6
:100C18006C076C07A03E8600403F2300D400413F8C
:100C2800D500423FD60020006C086C076C07AC3E2C
:100C3800860023005408C03F5508C13F5608C23FEC
:100C480020006C0808006C086C076C07AC3E860036
:100C5800870108002808BB002908BC002A08BD0035
:100C68004030AC01AD01AE00210047082000AF00C4
:100C7800210048082000B000210049082000B100E8
:100C8800080086008701403FD900413FDA00423F13
:100C9800DB0008006C076C07A03E8600870108008F
:100CA800403FD900413FDA00423FDB000800403FA7
:100CB800D600413FD700423FD80008008600403F99
:100CC8002300D500413FD600550886005608870006
:100CD8005408810020006C3508006C086C076C070C
:100CE800383E86000130870008006C086C076C07E6
:100CF800A03E08002300D400C630D501D435D50D58
:100D0800540784008730553D8500003F0800C23FE6
:100D180021006F082300D400D436D43654082000AC
:100D2800A800A90108002808BB002908BC002A0857
:100D3800BD0008006C076C07AC3E860000308701D8
:100D4800C03F08008600403FAC00413FAD00423F35
:100D5800AE000800C33E8600FC30870181052100F3
:100D68006308080086002008C03F2108C13F220808
:100D7800C23F0800403FCA00413FCB00423FCC0081
:100D880008006C076C07AC3E860008002C08BE0003
:100D98002D08BF002E08C00008003B08C03F3C08D3
:100DA800C13F3D08C23F08002F08B6073008B73DCD
:100DB8003108B83D0800403FAF00413FB000423F16
:100DC800B10008005608BE005708BF005808C00008
:100DD80008002808D6002908D7002A08D8000800E3
:100DE8004A08C03F4B08C13F4C0808005608C03F9E
:100DF8005708C13F580808006C3E8600013087003C
:100E080001080800FF30CD06CE06CF06CD0A08003F
:100E1800C33E860087010108FC3908000108230049
:100E2800D40020006C3508008030CF00BF00AF0030
:100E38009F000800F501F435F50D740784000800DB
:100E4800BB01BC01BD010800AC01AD01AE01080049
:100E580023080319342F220821042004031D3C2FE2
:100E6800A001A101A2010800A30AA236A10CA00CAE
:100E7800FE30220503194A2F382FA30AA00A0319A6
:100E8800A10A0319A20AA236A10CA00CFF30220560
:100E98000319572F412F02302302031C592FA30394
:100EA800A035A10DA20DA11F4F2F231CA113A336FE
:100EB8002308A700A601A5012508A0042608A10467
:100EC8002708A2042408031DA2170800BF278031A1
:100ED8000310610D620DE8006808031D782FDC011E
:100EE800DD01DE01DF010800BF2780311730E2365F
:100EF800E10CE00C890B7B2F6008E300DD17DE01B5
:100F08005C08E4005D08E5005E08E6008E30E70155
:100F1800E802E81F9B2F6808803A8F3E031C732F56
:100F2800E736E60CE50CE40CE80F942FA82F1830F0
:100F380068020318732F68080319A82FE435E50D14
:100F4800E60DE70DE8039F2F63080319B62FE409A0
:100F5800E509E609E709E40A0319E50A0319E60AB7
:100F68000319E70A6708DF006608DE006508DD0088
:100F78006408DC0008005C08E0005D08E1005E0829
:100F8800E2000800003400343034003431340034D6
:100F980032340034333400343434003436340034DA
:100FA80037340034383400343A3400343B340034B5
:100FB8003C3400343E3400343F340034413400348F
:100FC8004334003444340034463400344834003464
:100FD800493400344B3400344D3400344F34003439
:100FE8005134003453340034553400345734003409
:100FF800593400345B3400345D34003460340034D8
:1010080062340034643400346734003469340034A2
:101018006C3400346E340034713400347434003469
:1010280077340034793400347C3400347F3400342D
:101038008334003486340034893400348C340034EA
:101048009034003493340034973400349A340034A4
:101058009E340034A2340034A6340034AA34003458
:10106800AE340034B2340034B7340034BB34003406
:10107800C0340034C4340034C9340034CE340034AD
:10108800D3340034D8340034DD340034E33400344D
:10109800E8340034EE340034F3340034F9340034E6
:1010A800FF340034063401340C3401341234013472
:1010B8001934013420340134273401342E340134F6
:1010C800353401343D340134443401344C34013472
:1010D800543401345D340134653401346E340134E0
:1010E8007734013480340134893401349234013442
:1010F8009C340134A6340134B0340134BB34013497
:10110800C6340134D1340134DC340134E7340134D9
:10111800F3340134FF3401340C340234183402340B
:101128002534023433340234403402344E34023429
:101138005C3402346B3402347A3402348934023435
:1011480099340234A9340234BA340234CB34023428
:10115800DC340234EE340234003403341234033401
:1011680025340334393403344D34033461340334BF
:10117800763403348C340334A2340334B83403345F
:10118800CF340334E7340334FF34033418340434DD
:10119800313404344B340434663404348134043434
:1011A8009D340434B9340434D7340434F534043465
:1011B8001334053433340534533405347434053466
:1011C80096340534B8340534DC3405340034063438
:1011D800253406344B340634723406349A340634D3
:1011E800C3340634ED340634183407344434073431
:1011F800713407349F340734CE340734FF3407344E
:10120800303408346334083497340834CC34083420
:10121800033409343B34093474340934AE340934A2
:10122800EA34093428340A3467340A34A7340A34CF
:10123800E9340A342D340B3472340B34B9340B349A
:1012480001340C344C340C3498340C34E6340C34FB
:1012580036340D3488340D34DB340D3431340E34E7
:1012680089340E34E3340E343F340F349E340F3453
:10127800FE340F3462341034C73410342F34113430
:10128800993411340634123476341234E834123472
:101298005D341334D534133450341434CE34143408
:1012A8004F341534D33415345A341634E5341634DF
:1012B80072341734043418349834183431341934E7
:1012C800CD3419346D341A3410341B34B8341B340B
:1012D80063341C3413341D34C7341D3480341E3435
:1012E8003D341F34FE341F34C43420348F34213449
:1012F8005F342234343423340E342434ED3424342B
:10130800D2342534BC342634AC342734A2342834BF
:101318009E3429349F342A34A7342B34B6342C34E1
:10132800CB342D34E6342E3409343034323431346D
:10133800633432349B343334DB343434223436343B
:1013480071343734C934383429343A3491343B341D
:1013580002343D347C343E34FF343F34FF343F3470
:10136800FF343F34FF343F34FF343F34FF343F34DD
:10137800FF343F34FF343F34FF343F34FF343F34CD
:10138800FF343F344D3452341734C334103492345C
:101398008B31232B8B31272B8B31472B8B31752BA3
:0813A8008B31812B8B31A82B46
:1015F0002000111F080021001C08DD005C142000E1
:10160000111308006400013080010131FE02003036
:10161000FF3B7F087E0403190034032B01302100B7
:10162000911E00392000911E0039091C080023007A
:101630001D1DCB2B1908F200F61401302100E70024
:10164000D801D901CB2B23001908F200D62B20009A
:10165000911ED62B23001908F2007208031D3C2BA3
:1016600002302100E700E930E8000130DA00DB0158
:101670006608EF00E601D62BCC307206031D442B22
:1016800003302100E700D62B2100E701D62B2300F1
:101690001908F20021006E085B02031D512B6D0832
:1016A0005A02031C5D2B6D086E0403195D2B68083C
:1016B0008600870172088100E80ADA0A0319DB0A4A
:1016C0006D08043EF00000306E3DF1005B02031D2A
:1016D0006B2B70085A02031CD62B6D086E0403197D
:1016E000D62B7614E7238B31D62B23001908F20072
:1016F000720BD62B04302100E7001730F800CE0122
:10170000C72B23001908F2007808203E860001301C
:1017100087007208810002307806031DA02B78082C
:10172000203E860001080319A02B21004E084F041B
:10173000031DA02B0530E7006330F900F803D62B1A
:101740007808031D9E2B76172100E7238B319E2BF3
:1017500023001908F20079088C3EF0002130F101D5
:10176000F13D700886007108870072088100F10160
:1017700022002208643CF000031CF1037906710486
:10178000031DC92B04302100E7000130CE00CF013A
:10179000D62BF903D62B21006708840006300402FB
:1017A0000318D62B89310435CC3E8200210059081C
:1017B000803AF00089307002031DE02B613058023E
:1017C000031C080076152100D801D9010800E701A3
:1017D000D801D901761108002100DF01BD01BC014B
:1017E000BB01B80125258B311110210011140B17F5
:1017F00022000E1621000E1223009E169D171E12A7
:1018000009303D00A4004C302100E20023001E14EA
:101810001E1C0D2C23001E170F2C23001E137711E6
:10182000F71121001730ED01ED0AEE01F90011303A
:101830007902031C242C7908BC3E86000130870005
:10184000FE308100F903172CAA302300CC00F901E7
:101850002100CA01CB01063079020318552CFE3055
:10186000F40079088A248B31CB3E97248B31AA3837
:10187000AA248B318A248B31CA3E97248B31553868
:10188000AA248B318A248B31CB3EA3248B310318BD
:10189000CB0AFE30F40079088A248B31CA3EA32497
:1018A0008B310318CB0AF90A2B2C4B082200CD00F0
:1018B00021004A082200CC00F9014D08AA38230073
:1018C000BF0022004D0855382300BE0022004C08FE
:1018D000AA382300BD0022004C0855382300BC0064
:1018E0001030F9000B307902031C080079084C3ED7
:1018F00086000130870089302000A3007908D63C9B
:10190000A200031CA30384002308850000088100B3
:10191000F903722C2000A100A00174082118A0076F
:10192000F435A1362108031D8D2C200808008600FF
:10193000013087007908C63E840089300318013ED3
:10194000850000080800860001308700010821009A
:10195000CA0708008100FE30F40079080800210061
:10196000111C08002000111C08001110152DDF01AA
:101970002000960197012100DE0A080020008C1E3D
:10198000C32C0130C42C0030F0002100111FCA2CE0
:101990000130CB2C0030700603193E1425258B3105
:1019A0002100D80A0319D90A6030580609300319F2
:1019B0005906031DE02C6130D8000930D900761596
:1019C000B90A0319BA0A3814E83039060330031982
:1019D0003A06031D0800B901BA01BB0AB8143C302D
:1019E0003B06031D0800BB01BC0A38153C303C0611
:1019F000031D0800BC01BD0AB815080022000E1620
:101A0000FF3020009700F530960002302100DF0003
:101A1000080023009E1621001116FC3020009700BC
:101A2000DF3096002100DF01080021005F08003A46
:101A30000319BE2C013A0319FE2C033A0319092D90
:101A4000013A0319B82CB72C0800FE30200097008B
:101A50000B30960008008B2D771908007708FC39A9
:101A60000138F70021302100D300EE30D2002130C0
:101A7000D100EA3033278D3153300319390203186E
:101A80004E2D0F278D31031D4E2D40278D31933064
:101A900025278D31031C4E2DFC30F7052130210008
:101AA000D300E830D2002130D100E43033278D312B
:101AB000523003193902031C6A2D0F278D31031D83
:101AC0006A2D40278D31923025278D3103186A2DDC
:101AD000FC30F70577080339033A031D080021009D
:101AE000E101FE3023009A00D3302100E200D4014E
:101AF000D50122008E152100911223009E1621008F
:101B000011160800771556278D310030C03FC13FB0
:101B10009D2D7711832D22002408003A0319912D61
:101B20009C2D2308013A03192C2D033A0319822D09
:101B3000013A0319892D9C2D0800CC3023009A000E
:101B4000BC258D314C30860001305D278D31F4008D
:101B500016001A00F40BA82D28302000B8005226D9
:101B60008D3121082200CD00200020082200CC0069
:101B700001302100E100DB2D2B3086000130870091
:101B8000403F2200DD00413FDE00423FDF00433F97
:101B9000E0003008E2002F08E1002A08D6002508FE
:101BA000013ED1002408D0002308CF004E08183E83
:101BB000E300D5010800FF3020009700A530960013
:101BC00001302100DF0022000E128E152100CC0012
:101BD000CD0191120800761F08007613FC30F7053E
:101BE0005230220035064D30031936060319FD2DFB
:101BF000350F192E360A031D192E9230310610307A
:101C000003193206C330031933061730031934069B
:101C10000319152E310F192E320A031D192E330AFE
:101C2000031D192E340A031D192E7708FC390138BB
:101C3000F70077080339013A031D3D2E2030860056
:101C400001305D278D31F50016001A00F50B242EAA
:101C500064302000B80052268D3122002108200077
:101C60002106031D372E2200200820002006031D18
:101C70003D2E7708FC390238F70077080339023A1D
:101C8000031D080022002508103A03194E2E303A91
:101C900003194F2E103A0319502E512E2B2D832E3F
:101CA000F62E0800CD302100CA001730CB01F80015
:101CB00002307802031C662E7808203E86008701D9
:101CC0000108CA070318CB0AF803582E2000380869
:101CD000FF3EF80022083802F90079087802031C58
:101CE0007A2E7908F9278D312100CA070318CB0A0B
:101CF000F90A6D2E21004B082000A10021004A089E
:101D00002000A0000800DF2E0130CE00770C20005C
:101D1000B900B90C390C0139BA00B3308600213052
:101D200087003A088100F52E1330CE0020000130E4
:101D3000B901BA00B2308600213087003908C03FAF
:101D40003A08C13F8030B900B0304F278D310430A0
:101D5000B900AE304F278D3121302100D100AA309B
:101D6000D0008600510887000130C03F0030C13FDD
:101D7000C23FC33F0430200063278D315C313908F6
:101D8000C03F3A08C13F013063278D315A313908CD
:101D9000C03F3A0849278D3158316A278D3149278C
:101DA0008D3100305631C03F49278D315531810189
:101DB000F52E56278D316A278D31C13FF52E220031
:101DC0002408003A0319E82E103A0319F02EF52ED4
:101DD0002308603A0319942E903A0319D92EF52E50
:101DE0002308003A0319842EF52E9D2D032FEE3083
:101DF000860021308700403F2100ED00413FEE008A
:101E00002200CE010E2F22002408003A0319092FC8
:101E10000E2F2308F03A0319F72E0E2F9D2D770869
:101E20000339B900B90A77083906FC393906F700D1
:101E3000210052088600530887001600523A2000FD
:101E4000B90016004D3AB90408003902413FB90003
:101E50001030393B423FB900C330393B433FB900F2
:101E60001730393B0800D00052088600530887001D
:101E7000403F2000B900413FBA004D303A0208000F
:101E800021005008860051088700403F2000B9001B
:101E90000800C13F8C308600213087000800BA015D
:101EA00086003908C03F3A08C13F08000230CE0022
:101EB000B23086002130870008008700203084007F
:101EC000003085001834B9008C30BA01860021300A
:101ED0008700080021006D08C03F6E08080021003F
:101EE000111E08002000111E0800DE2F4C034D04B7
:101EF000031D802FCC01CD01CC3023009A000800B7
:101F0000013023009A0063302100E2000230D40146
:101F1000D501E100080000305502193003195402C0
:101F20000318962FEE270319D50A080091162200F0
:101F30000E1623009E122100111222008E1108009D
:101F4000003055021930031954020318962FEE275A
:101F50008D310319D50A163054065504031D0800A7
:101F600022004E080319080021004C084D04031DEF
:101F700008000330E1002730E00008006008F9277E
:101F80008D3123009A00F10122004E08283CF00018
:101F9000031CF10321006008F200F30171087306CD
:101FA000031DD42F70087206031DDC2F0230E100E0
:101FB0000130CC00CD010800E003080021006108D9
:101FC000003A03198B2F013A0319762F033A0319AC
:101FD000A02F013A0319BE2FED2F080062088600DA
:101FE00001308700010823009A002100E203D40A8F
:101FF00008008C3E860021308701873D01080800DB
:020000040001F9
:04000E00E4F9FBDF37
:00000001FF
