:040000008031132810
:100008007E1480318F31242780318E31B0268031A3
:100018008031152080318E31A1267E100900803173
:10002800A8282100111E08002000111E0800912890
:100038002B032C04031D2628AB01AC01CC30230074
:100048009A000800013023009A00EE302000B30027
:100058000030B4000330B501B601C7000800C7017D
:1000680008000030360218300319350203184228F8
:10007800B50A0319B60A33089C200800210011129A
:100088009116FF3020009700CA3096000430C30054
:1000980008000030360219300319350203186D289C
:1000A80033089C208031B50A0319B60A1630350684
:1000B8003604031D08002100590803190800200010
:1000C8002B082C04031D08000430C7003130C5007C
:1000D800080021009116111245284508F1268031A3
:1000E80023009A00F10121005908323CF000031C5A
:1000F800F10320004508F200F30171087306031D9F
:10010800872870087206031D8F280330C700013046
:10011800AB00AC010800C50308004708840005309F
:1001280004020318080089310435D33E8200080010
:10013800840034088500000823009A00013020005C
:10014800B3020030B43B0800FF30EE00220001305B
:10015800E4000230E501E601E701E801E901EA010E
:10016800EB01EC008C30ED01EE01EF018400213051
:1001780085006430FE00FF018E31952680312030E5
:10018800F601F701F801F9018400003085003030EC
:10019800FE00FF018E3195268031A03084000030AA
:1001A80085004F30FE00FF018E31952680312030CA
:1001B8008400013085004430FE00FF018E31952611
:1001C80080317E102000E8283B009401A401B4018E
:1001D800C4019301A301B301C3018030CF00BF0064
:1001E800AF009F0003303D0092000430A0000530AE
:1001F800A1000630A200FF3020009B00F030210053
:10020800990098010E118E100E100C1123000E117A
:100218008E100E100C113B00C201B201A201920116
:10022800C101B101A1019101FF30C600B600A600CD
:100238009600C500B500A5009500CE01BE01AE012F
:100248009E0121008E1123008E11C0308B00A72340
:10025800803142218031E621803180303B00CB0063
:10026800BB00AB009B002000BD01BD0ABE01B3214D
:100278008031072380319E2380313B2915303C0093
:10028800950021008E16903023009D001E129F01BC
:100298001E159C0107309B00210091160D30C900E6
:1002A8009330C8000D30CB00A330CA000D30CD000C
:1002B800B330CC000D30CF00C330CE000D30C100BC
:1002C8009430C0000D30C300A430C2000D30C5000A
:1002D800B430C4000D30C700C430C6000D30B900BA
:1002E8009F30B8000D30BB00AF30BA000D30BD00F4
:1002F800BF30BC000D30BF00CF30BE00F901043064
:1003080079020318080079086C3E860001308700DE
:10031800023081007935643E86007935653E840077
:1003280001308500803F81007908D03E8600870132
:1003380001112000D001D101D2017908790779078C
:10034800383E860001308700FF268031790879071A
:100358007907203E8600FF268031F90A8329761C1A
:10036800DF297610F901043079020318DF290627FE
:1003780080312000D0004A301E2780318730122774
:100388008031C03ECB26803106278031D0004930ED
:100398001E278031873012278031C83ECB26803116
:1003A800D7268031D000413FD1005008860051083F
:1003B80030278031B7292000201C0800C90A2010E6
:1003C800F90108000B1721000E1222000E16230057
:1003D8009D171E1209303D00A400D7302000B3003D
:1003E8000030B40023001E141E1CFD2923001E1714
:1003F800FF2923001E1322008E117711F7111730E1
:100408002000C60011304602031C132A46084C3E41
:10041800860001308700FE308100C603062AAA3014
:100428002200DC002000C601A701A8010630460210
:100438000318442AFE30F4004608B22280315B3E9D
:10044800BF268031AA3835278031B22280315A3E02
:10045800BF268031553835278031B22280315B3E46
:10046800242780310318A80AFE30F4004608B22277
:1004780080315A3E242780310318A80AC60A1A2A4E
:1004880028082100D800200027082100D700580894
:10049800AA382200CF002100580855382200CE0083
:1004A80021005708AA382200CD00210057085538E6
:1004B8002200CC0010302000C6000B304602031C7E
:1004C800772A4608D73E860089308701D500460836
:1004D8008F3CD400031CD503840055088500000810
:1004E8008100C603612A8030F4000C30F500BE227A
:1004F8008031182780313D0A3F3003193E0680308D
:10050800031D8F2AD0000C30D100D201D20AD301AA
:10051800CC2280318030F4000C30F500BE228031CE
:10052800182780314408F400F501BE228031740890
:100538002000C400440FA92AC030D0000C30D100DC
:100548000430D200D301CC228031C030F4000C300A
:10055800F500BE2274082000C4000800D100D001B4
:1005680074085118D007F435D1365108031DB42A40
:1005780050080800750823009200740891001514AB
:100588000000000023001408F5001308F400080018
:100598008B1323001513200051082300920020001C
:1005A8005008230091001516151555309600AA30ED
:1005B80096009514000000002300151295162000DF
:1005C800530823009400200052082300930095123A
:1005D80055309600AA3096009514000000002000BF
:1005E8005108F5005008F400BE228031200053085D
:1005F8007506031D012B52087406031DCC2A23001F
:1006080015118B170800761F08007613FC30F705C4
:10061800BA30210035060830031936060319192B9C
:10062800350F332B360A031D332B783031065630FD
:10063800031932063430031933061230031934060D
:100648000319312B310F332B320A031D332B330A95
:10065800031D332B340A031D332B3F2780317708C2
:100668000339013A031D572BA03086000030DD26E0
:1006780080312000ED0016001A00ED0B3F2B64308E
:10068800E800742380312100210820005106031D51
:10069800512B2100200820005006031D572B7708F6
:1006A800FC390238F70077080339023A031D0800BD
:1006B8006E23803121002508103A03196A2B303A3D
:1006C80003196B2B103A03196C2B6D2B882DFC2BFF
:1006D8002A2D08002100D901F8012000C6010800D0
:1006E800CD30A7001730A801F80002307802031CAB
:1006F800872B7808503E860087010108A707031852
:10070800A80AF803792B6808FF3EF8005208680227
:10071800C60046087802031C992B4608F12680314A
:10072800A7070318A80AC60A8D2B2808D10027088E
:10073800D0000800F71E0800F7121030F706771EE1
:10074800A62BD52BBE2B2100111431302000980088
:10075800C301A501A401A301A001FE3097000B303D
:1007680096001110210011144F3020009C00F93020
:100778009B000800F9010430790203180800793554
:10078800C03E8A26803181017935C83E8A2680316B
:1007980081017935B83E8A26803180308100F90A96
:1007A800BF2BF901043079020318080020006E08F5
:1007B800D0004A302A27803187300C278031C03E4C
:1007C800B22680316E08D00049302A278031873020
:1007D8000C278031C83EB2268031D7268031D00020
:1007E800413FD10050088600510830278031D62B70
:1007F8009D2C770C2000E900E90C690C0139DE24F6
:100808008031BF2C0130F401F500C02480318030E4
:10081800F400F501C02480310430F400F501C0244F
:1008280080312030D3001730D2001030D100123080
:10083800D000052580310430F400F501C024803152
:100848004408DE2480311E30DE2480314427803184
:10085800C0248031F401F501C02480310030DE2449
:100868008031BF2C200044278031C0248031BF2C28
:10087800F80A7808673E840089300318013E85002D
:100888000008DE248031183078020318BF2C3C2C75
:1008980004302000C600460878020318BF2C7808E8
:1008A800E9008530EA01E935EA0D690784008930F5
:1008B8006A3D8500003FF400013FF500C024803107
:1008C800F80A4F2C20004408DE2480311E30DE2434
:1008D8008031BF2C2000F8268031F0248031510867
:1008E800850050088400463084078930853D003FE4
:1008F800B300013FB400F8268031F024803151085C
:10090800850050088400483084078930853D0008F8
:10091800C600460878020318BF2C33088400340840
:1009280085000008DE248031F80AB30A0319B40AE6
:100938008D2C21002408003A0319A62C103A03191B
:10094800BA2CBF2C2308503A03194C2C303A0319FF
:10095800062CA03A0319472C203A0319662C013AB1
:1009680003196E2C113A0319362CBF2C2308003AB0
:100978000319FD2BBF2C2F2E2100D90AD90A59089B
:100988002000D000D036D2015008193CD100031CF9
:10099800D2038C30D135D20DD3002130D400510888
:1009A800530786005208543D87007408C03F7508F5
:1009B800C13F08002000D0002100D90A2130F500ED
:1009C8005908BE3CF400031CF5038600750887002F
:1009D8002000500881000800F401F501501CF82C93
:1009E8005208F4075308F53DD235D30DD136D00C53
:1009F80050085104031DF22C7508D1007408D0006A
:100A0800080004302100D90759082000D400D43642
:100A1800D436D6015408193CD500031CD6038C30B3
:100A2800D535D60DD535D60DD7002130D800550887
:100A3800570786005608583D87005008C03F5108A0
:100A4800C13F5208C23F5308C33F0800582DFF2535
:100A580080317108860072088700403FBD00413F21
:100A6800BE008030D0000C30D1003E08D3003D08D5
:100A7800D200CC228031712D7C258031712D7225D8
:100A88008031EA268031EE00712D72258031EA2608
:100A98008031C400C030D0000C30D1004408D200EE
:100AA800D301CC228031712D21002408003A03198A
:100AB800612D103A0319692D712D2308E03A0319A5
:100AC800492D103A03192B2D712D2308003A0319CB
:100AD800402D403A0319432D712D2F2EF80A21304D
:100AE800F500F030F4007808F402031CF503080060
:100AF8000830F706F71D832D21009114852D21005C
:100B08009110F7190800BE2BED2D7708FC39013834
:100B1800F700771908003F278031FF2580313A27F1
:100B280080311626803195268031BA300319690242
:100B38000318AB2D76268031031DAB2DE3268031BB
:100B48007930A4268031031CAB2DFC30F705FF2536
:100B580080313A2780311626803195268031BB3086
:100B680003196902031CC52D76268031031DC52D86
:100B7800E32680317830A42680310318C52DFC3057
:100B8800F70577080339033A031D080022008E157C
:100B980063302000B3000130B400B501B601C701CD
:100BA8002100911223009E16FF3020009700E530A7
:100BB80096000530C300080077150230D900BC3014
:100BC8008600213087000030C03FC13F2F2E7711AB
:100BD800EA2D21002408003A0319F32DFE2D2308DD
:100BE800013A0319892D033A0319E02D013A031933
:100BF800EB2DFE2D0800F80AF80A2130F2008C309F
:100C0800F10078082000D000D036D2015008323CDC
:100C1800D100031CD203D135D20D5108F107520877
:100C2800F23D08000430F8072130F2008C30F10062
:100C38007808D000D036D036D2015008193CD100FF
:100C4800031CD203D135D20DD135D20D5108F1078D
:100C58005208F23D08004B268031D730860000301C
:100C6800DD268031F40016001A00F40B372E3230DE
:100C78002000E8007423803151082100D8002000AA
:100C880050082100D70001302000C700692EAB3082
:100C980086008701403F2100E800413FE900423FCC
:100CA800EA00433FEB003008ED002F08EC002A086B
:100CB800E1002508013EDC002408DB002308DA00F7
:100CC8005908183EEE00E0010800FF309700CD30CB
:100CD80096000330C30022008E1501302000AB00BF
:100CE800AC01080077080339E900E90A77086906C2
:100CF800FC396906F70031088600320887001600BB
:100D0800BA3AE9001600083AE904080086008701A3
:100D1800403FF400413FF5007408860075088700DD
:100D280008007208B0007108AF0031088600320868
:100D38008700403FE900413FEA0008306A020800A6
:100D48006902413FE9005630693B423FE9003430CF
:100D5800693B433FE9001230693B08008600870180
:100D6800403FD300413FD400530886005408870011
:100D780052088100080086000130870046087F3E3F
:100D8800840089300318013E8500000808008600A9
:100D9800403FD300413FD4005308860054088700E1
:100DA8005208810008007935B83E86008701403F27
:100DB80008008700503084000030850018342F0860
:100DC800860030088700403FE90008007408860064
:100DD800750887000108200008008C3E8600213035
:100DE8008701873D010808004408D0000530D1017B
:100DF800D200D30108005008C03F5108C13F520833
:100E0800C23F080079084C3E8600870101080800A7
:100E1800513D85000008D20079350800513D850014
:100E28000008D2007935080075082000BE00740853
:100E3800BD000800D101D035D10D5007840008004D
:100E48008600013087000108A7070800D101D035C6
:100E5800D10D500784000800870080308100F90A0E
:100E680008008100FE30F400460808007208B2004D
:100E78007108B10008007708FC390138F70008004C
:100E88003E08F5003D08F400080000340034C8347A
:100E98000034CC340034D1340034D6340034DB345C
:100EA8000034E1340034E6340034EC340034F134F6
:100EB8000034F7340034FD34003403340134093489
:100EC800013410340134163401341D34013424340F
:100ED80001342B340134323401343934013441348F
:100EE8000134493401345134013459340134613402
:100EF80001346A340134723401347B34013484346B
:100F080001348E34013497340134A1340134AB34C4
:100F18000134B5340134C0340134CB340134D6340F
:100F28000134E1340134EC340134F834013404344C
:100F38000234113402341E3402342B34023438346F
:100F48000234463402345434023462340234703485
:100F58000234803402348F3402349F340234AF3484
:100F68000234BF340234D0340234E1340234F3346E
:100F7800023405340334183403342B3403343E3438
:100F8800033452340334673403347C3403349134E7
:100F98000334A7340334BE340334D5340334EC3477
:100FA8000334043404341D340434363404345034E3
:100FB80004346B34043486340434A2340434BE3428
:100FC8000434DC340434F934043418340534373444
:100FD800053457340534783405349A340534BC3430
:100FE8000534E034053404340634293406344F34E7
:100FF8000634763406349D340634C6340634F03468
:1010080006341A3407344634073473340734A134A9
:101018000734CF34073400340834313408346334A7
:10102800083497340834CB3408340234093439345A
:10103800093472340934AC340934E73409342434BB
:101048000A3463340A34A2340A34E4340A342734C0
:101058000B346B340B34B2340B34FA340B34433462
:101068000C348F340C34DC340C342B340D347C3495
:101078000D34CF340D3424340E347B340E34D43450
:101088000E342F340F348C340F34EC340F344E3488
:101098001034B23410341934113482341134EE342B
:1010A80011345C341234CD34123441341334B7342F
:1010B800133430341434AC3414342C341534AE3482
:1010C800153433341634BC34163447341734D73413
:1010D800173469341834FF341834993419343734D0
:1010E8001A34D8341A347D341B3426341C34D3349F
:1010F8001C3484341D343A341E34F4341E34B2346F
:101108001F34753420343D34213409342234DA3420
:101118002234B13423348C3424346D34253453349C
:1011280026343F34273430342834273429342434BF
:101138002A3428342B3431342C3441342D34573468
:101148002E3474342F3498343034C3343134F53475
:1011580032342E3434346F343534B73436340834BA
:10116800383461343934C1343A342B343C349D3406
:101178003D3418343F349C34403429344234C0342C
:101188004334613445340B344734C03448347F34F5
:101198004A344A344C341F344E34FF344F34EB3421
:1011A8005134E3345334E7345534F7345734143472
:1011B8005A343E345C3475345E34BA3460340D3499
:1011C80063346E346534DE3467345D346A34EB344A
:1011D8006C3488346F3436347234F5347434C4342F
:1011E8007734A5347A3497347D349B348034B234E0
:1011F8008334DC34863419348A346A348D34D034F8
:1012080090344B349434DB34973480349B343D34FD
:101218009F341034A334FB34A634FE34AA34193472
:10122800AF344E34B3349D34B7340634BC348A34C6
:10123800C0342A34C534E734C934C034CE34B83461
:10124800D334CE34D8340334DE345834E334CE3493
:10125800E8346634EE342034F434FD34F934FF34A1
:10126800FF34FF34FF34FF34FF34FF34FF34FF34DE
:10127800FF34FF34FF34FF34FF34FF34FF34FF34CE
:10128800FF34FF34FF34FF34FF3401340134B53404
:101298008934063402340234AF34893406340334D2
:1012A8000334A9348934063404340434A334893427
:1012B800063405340234963489340D340634043443
:1012C800893489340D344D346534743465346F345D
:1012D800723420344C346934673468347434693473
:1012E8006E34673420347634313437343134303422
:1012F8003134323400340834BA3412343434563485
:101308007834E0340034E1340034323420344C345E
:101318004F3447342C34203432342034433443346B
:1013280054340034313420344C344F3447342C3462
:101338002034313420344334433454340034343486
:1013480020344C344F3447340034333420344C3454
:101358004F3447340034323420344C344F3447341B
:101368000034313420344C344F34473400348E3117
:10137800BA2E8E31F72E8F31032F8E31EB2E8F310F
:10138800132F8F310B2F8F31392F8F313D2F8F3105
:101398005A2F8F31882F8F31942F8F31BA2F803168
:1013A800352880311C288031332880314D28803100
:0213B80071289A
:101D2A006400013080010131FE020030FF3B7F0870
:101D3A007E0403190034962E2100911C080020000D
:101D4A00911C080091103230C10A4106031D080097
:101D5A00C101F71608002100111C08002000111CFF
:101D6A0008001110192FC3010800FE3097000B302C
:101D7A009600B90A0319BA0A6030390609300319FC
:101D8A003A06031DCD2E6130B9000930BA00761526
:101D9A00A10A0319A20A2014E83021060330031904
:101DAA002206031D0800A101A201A30AA0143C30C7
:101DBA002306031D0800A301A40A20153C302406AB
:101DCA00031D0800A401A50AA015080022000E128E
:101DDA0023009E12FF3020009700733096000130D6
:101DEA00C300080023009E1622000E16FF302000B2
:101DFA009700F53096000230C3000800FC309700C7
:101E0A00DF309600C30121001116080021001116C7
:101E1A00FC3020009700DF309600B82E960197011B
:101E2A00C30122008E110800430884000630040210
:101E3A000318B82E89310435BB3E820008000130F0
:101E4A002100911E00392000911E0039091C08004A
:101E5A0023001D1DDF2F1908F200F614013020009F
:101E6A00CA00B901BA01DF2F23001908F200EA2FCC
:101E7A00911EEA2F23001908F2007208031D4F2F42
:101E8A0002302000CA004C30CB000130BB00BC013C
:101E9A00C901EA2FCC307206031D572F03302000E8
:101EAA00CA00EA2F2000CA01EA2F23001908F2000B
:101EBA0020003E083C02031D642F3D083B02031C20
:101ECA00702F3D083E040319702F4B0886008701C6
:101EDA0072088100CB0ABB0A0319BC0A3D08043EFA
:101EEA00F00000303E3DF1003C02031D7E2F7008D9
:101EFA003B02031CEA2F3D083E040319EA2F76141D
:101F0A00FB278F31EA2F23001908F200720BEA2F00
:101F1A0004302000CA001730F800AD01DB2F23007F
:101F2A001908F2007808A03E86008701720881002D
:101F3A0002307806031DB22F7808A03E86000108F9
:101F4A000319B22F20002D082E04031DB22F0530CD
:101F5A00CA006330C600F803EA2F7808031DB02FC1
:101F6A0076172000FB278F31B02F23001908F200C3
:101F7A00200046088C3EF0002130F101F13D700846
:101F8A0086007108870072088100F1012100220889
:101F9A00643CF000031CF10320004608700671043B
:101FAA00031DDD2F0430CA000130AD00AE01EA2F57
:101FBA00C603EA2F20004A088400063004020318E8
:101FCA00EA2F89310435C73E820020003A08803A58
:101FDA00F00089307002031DF42F61303902031CAE
:101FEA00080076152000B901BA010800CA01B90132
:061FFA00BA017611080097
:020000040001F9
:04000E00E4F9F9DF39
:00000001FF
