:040000008031132810
:100008007E14803180311520803182311B2280316D
:100018008031F72080318231C1227E100900883179
:100028000E2801302100911E00392000911E003950
:10003800091C080023001D1DD0281908F200F61419
:1000480001302100E900D601D701D0282300190882
:10005800F200DB282000911EDB2823001908F2009B
:100068007208031D432802302100E9006430EA00C9
:100078000130D800D9016808ED00E801DB28CC3050
:100088007206031D4B2803302100E900DB282100FC
:10009800E901DB2823001908F20021005B08590256
:1000A800031D58285A085802031C62285A085B0482
:1000B800031962286A08EC208031EA0AD80A031971
:1000C800D90A5A08043EF00000305B3DF10059029D
:1000D800031D702870085802031CDB285A085B04AB
:1000E8000319DB287614F2208031DB282300190855
:1000F800F200720BDB2804302100E9001730F80009
:100108002200C801CC2823001908F2007808203EF4
:10011800EC20803102307806031DA4287808203EA0
:10012800860001080319A428220048084904031D71
:10013800A42805302100E900C730F900F803DB28BE
:100148007808031DA22876172100F2208031A22802
:1001580023001908F2007908183EF0002330F10155
:10016800F13D700886007108870072088100F1016E
:1001780022002208C83CF000031CF1037906710430
:10018800031DCE2804302100E90001302200C800F8
:10019800C901DB28F903DB2821006908840006303F
:1001A80004020318DB2883310435003E8200210055
:1001B8005708803AF00089307002031DE528613045
:1001C8005602031C080076152100D601D701080045
:1001D800860001308700720881000800E901D60115
:1001E800D701761108002100111E08002000111EF9
:1001F80008006F294C034D04031D0829CC01CD01CB
:10020800CC3023009A000800013023009A006330A4
:100218002100E4000330D401D501E3000800E30124
:100228000800003055021830031954020318212918
:10023800D40A0319D50A8221080011129116FF3039
:1002480020009700DD30960004302100E00008000F
:100258000030550218300319540203184B29822123
:100268008031D40A0319D50A163054065504031DE3
:10027800080022004E080319080021004C084D040C
:10028800031D08000530E3006330E2000800911602
:100298001112232962088C218031010823009A0059
:1002A800F10122004E08643CF000031CF103210018
:1002B8006208F200F30171087306031D65297008CE
:1002C8007206031D6D290330E3000130CC00CD0117
:1002D8000800E203080021006308003A0319152901
:1002E800013A0319FE28033A03191329013A03199D
:1002F8002C29063A03194E2981290800640886002A
:1003080001308700010823009A002100E403080057
:10031800183E860023308701873D0800F71E080035
:10032800F7121030F706771E9A29BF29A729083037
:10033800F706F71DA22921009114A4292100911084
:10034800F7190800A7292000EC0104306C020318F3
:1003580008006C35A83EEF21813181016C35B03E33
:10036800EF21813181016C35A03EEF218131803050
:100378008100EC0AA9292000EC0121006E08200068
:100388006C020318080021006C082000A00001304E
:100398000F228131983015228131A83EFB2181310D
:1003A80021006C082000A00000300F228131983015
:1003B80015228131B03EFB2181316C350922813112
:1003C800A000413FA1002008860021088700803056
:1003D8008100EC0AC129860001308700403FF40003
:1003E800413FF500740886007508870008008600FC
:1003F80001308700403FA300413FA4002308860046
:1004080024088700220881000800A03E86000130E9
:100418008700403F0800A101A035A10D20078400F6
:100428000800213D85000008A2006C350800210065
:10043800111C08002000111C08001110722A21004C
:10044800E00108008F31FA2782312100D60A03190A
:10045800D70A60305606093003195706031D392A92
:100468006130D6000930D7007615B90A0319BA0ADF
:100478003814E8303906033003193A06031D08001A
:10048800B901BA01BB0AB8143C303B06031D080089
:10049800BB01BC0A38153C303C06031D0800BC01F2
:1004A800BD0AB815080023009E127E220800973165
:1004B800382702302100E000080087222100E001EF
:1004C80011160800111687228231232A200096016E
:1004D80097012100E00122008E1108002100600828
:1004E8008400063004020318232A82310435E93EC9
:1004F80082000800FF30200097004F30960001303E
:100508002100E0000800FC3020009700DF30960052
:1005180008004D344534543445344F345234203473
:100528004434523449345634453452340034003457
:100538000034003400340034003400340034003413
:100548000034003400340034003400340034003403
:1005580000340034003440340034003400340034B3
:1005680000340034003400340034013400340034E2
:10057800003400340034003400342100911C080099
:100588002000911C0800911021003230DE0A5E061E
:10059800031D0800DE01F7160800FE0012001E0009
:1005A8000130FE020030FF3B7F087E04031900344F
:1005B800D22A6400013080010131FE020030FF3B85
:1005C8007F087E0403190034DE2A8231262A82310C
:1005D8005B2A8231612A8231572A82316A2A823122
:0205E800662A81
:1006000080312A2880312E2880314E2880317A2866
:08061000803187288031AC28FD
:10101C0021000D30EB00FF30EC006430ED000430AB
:10102C00EE0022000130E8000230E901EA01EB0198
:10103C00EC00AD30ED01EE01EF0184008230850053
:10104C00DC308600013087001430FF018231D12260
:10105C0088318D308400823085002030860002304B
:10106C0087002030FF018231D12288311830840072
:10107C0023308500C830FE00FF018231DD2288312B
:10108C00F601F701F801F9012000A030EC01840011
:10109C00003085004B30FE00FF018231DD228831AB
:1010AC0020308400013085004830FE00FF01823181
:1010BC00DD228831A0308400013085003C30FE00F8
:1010CC00FF018231DD2288317E1020006D283B002B
:1010DC009401A401B401C4019301A301B301C301A0
:1010EC008030CF00BF00AF009F0003303D00920066
:1010FC000430A0000530A1000630A200FF30200013
:10110C009B00F0302100990098010E118E100E10EA
:10111C000C1123000E118E100E100C113B00C2018D
:10112C00B201A2019201C101B101A1019101FF30F3
:10113C00C600B600A6009600C500B500A500950037
:10114C00CE01BE01AE019E0121008E1123008E1135
:10115C00C0308B00E5278831C420913120218831A3
:10116C0080303B00CB00BB00AB009B0025219031B5
:10117C002D208831813192218831BC2815303C00DA
:10118C00950021008E16903023009D001E129F01A9
:10119C001E159C0107309B00210091160D30230079
:1011AC00B1009330B0000D30B300A330B2000D305D
:1011BC00B500B330B4000D30B700C330B6000D30FD
:1011CC00A9009430A8000D30AB00A430AA000D305B
:1011DC00AD00B430AC000D30AF00C430AE000D30FB
:1011EC00A1009F30A0000D30A300AF30A2000D3045
:1011FC00A500BF30A4000D30A700CF30A600200002
:10120C00EC0104306C02031808005C2688310230B3
:10121C0081006C35E83EDB2688318500803FC32693
:10122C0088310111A001A101A201B2258831B0269B
:10123C0088318F258831B0268831EC0A0729761C35
:10124C00DC2A76102000EC012100E7010330E600D7
:10125C0005306102031CD62ADC2AB7268831010826
:10126C002100E50020008F258831870194268831E4
:10127C0021006508ED2388312808AF002908B0004B
:10128C002A08B100FD2388310318B5298F25883130
:10129C0087010026883121006508ED238831280854
:1012AC00D9002908DA002A08DB0029248831952581
:1012BC008831FD2388316C0803186D296A26883122
:1012CC00ED2388316C086C07792588313B2AD526AB
:1012DC008831013881008F258831403FE9258831DC
:1012EC00B22588313E2688318F2588317926883180
:1012FC005C2688310108ED238831B8258831ED232F
:10130C0088319B268831E42688318626883144240E
:10131C00883155268831A02488318F258831870162
:10132C004A08C03F4B08C13F4C082B2688314E253C
:10133C00883147268831B2258831870100268831CB
:10134C008F258831F925883129248831A2268831C6
:10135C0044248831162688318D2688313B2A210079
:10136C006508ED2388312808AC002908AD002A084F
:10137C00AE008F25883187014E268831FD238831B8
:10138C0003182E2A21006508ED238831A9268831FF
:10139C008F2588318701F9258831292488319525B5
:1013AC008831FD2388316C080318E5296A268831B9
:1013BC00ED2388316C086C07792588313B2AD526BA
:1013CC008831023881008F258831403FE9258831EA
:1013DC00B22588313E2688315C2688310108ED2300
:1013EC008831B8258831ED2388319B268831E42655
:1013FC00883186268831442488313B08D6003C0845
:10140C00D7003D08D8008F2588318701F925883110
:10141C00292488318F258831722688312B268831F2
:10142C004E258831472688318F2588318701002643
:10143C008831B2258831F925883129248831A226B2
:10144C00883144248831162688318D2688313B2AF0
:10145C0021006508ED2388316C086C0779258831EB
:10146C006C08C53E8600FC308105B72688316C08B7
:10147C00C03E84000130850000080106031D792A56
:10148C006C08C53E860087010119792ABD26883172
:10149C00810A6C35E83E860010300106031D672A70
:1014AC006C35E83EDB268831803F81006C086C3E51
:1014BC0086000230C326883101156C08683E8026F0
:1014CC008831BD2688310108ED238831D12588313A
:1014DC004424883155268831A0248831F12588315F
:1014EC0037268831C92A5C2688316C35E93E840060
:1014FC000130850000082400C00020006C35E83E57
:10150C008400000824004007810020006C35E93E6F
:10151C0086006C35E83E8400000881006C35E83E9E
:10152C0086000108ED238831D12588314424883187
:10153C0055268831A0248831F12588313726883109
:10154C006C35E83E86008101810A6C08C53E860038
:10155C00663087010111AC000630AD004030AE00A2
:10156C00F12588314E268831FD2388316C0803180B
:10157C00C62A683E8600013087008101810AC92A8B
:10158C00683E802688316C08C03E8600013087009A
:10159C006C08643E84000130850000088100EC0A70
:1015AC0021006E0820006C02031C33292100381C1A
:1015BC000800E80A38102000EC012100E70A660850
:1015CC00031DEB2B6D0867020318EB2B0330E600B1
:1015DC00D52B1626883179268831B225883187019A
:1015EC00403FCD00413FCE00423FCF00A024883188
:1015FC00B22588318701372688317F30AC01AD00A8
:10160C004330AE00B22588314E268831FD23883117
:10161C006C080318392B622688317F30C13F433068
:10162C00C23F382B1626883100268831B2258831E6
:10163C008701F925883129248831B2258831722611
:10164C008831C23FB225883194268831AF01B00170
:10165C00B101FD2388316C080318392B62268831BF
:10166C00C13FC23F6C086C076C07AC3E860087011B
:10167C00403FDC00413FDD00423FDE0089278831DE
:10168C005C082100E5001E268831C200013FC30022
:10169C00210065082400C4000230C501C435C50D05
:1016AC00440784009830453D8500003FC600013F4B
:1016BC00C700420846022000A80024004308473B0C
:1016CC002000A900692588312808AF002908B0003E
:1016DC002A08B100B22588318701F925883121000B
:1016EC006508ED238831A9268831292488315608CC
:1016FC00AC005708AD005808AE00E42688312C0821
:10170C00E9002D08EA002E08EB00210065081E26D2
:10171C0088312000A800013FA900692588312808DC
:10172C00CD002908CE002A08CF006908CA006A0833
:10173C00CB006B08CC00A02488314A08DC004B0895
:10174C00DD004C08DE00892788316C35B83E8600F8
:10175C00013087005C08C03F5D08C13FF719D32BEF
:10176C006C35B93E8600CF268831A83E07268831D5
:10177C00B83E860001308700CF268831B03E072660
:10178C008231092288312400C000413FC100400849
:10179C00860041088700803081002000EC0A21007F
:1017AC006E0820006C02031808006C08C53E860009
:1017BC008701010803390319382B013A0319EF2A61
:1017CC00033A0319182B382B382BE6030800F400C6
:1017DC002000A0008E30A101A201A300A40140278B
:1017EC002008A8002108A9002208AA000800AE1FA2
:1017FC000C2C2C08003CAC002D08031C2D0F003CBD
:10180C00AD002E08031C2E0F803CAE00B11F1B2C0C
:10181C002F08003CAF003008031C300F003CB00018
:10182C003108031C310F803CB1008030AE06B1068C
:10183C0031082E02031D080030082D02031D08007C
:10184C002F082C0208005808570456040319302C92
:10185C008030D8065908CA005A08CB005B08CC0067
:10186C005608CD005708CE005808CF00A0244A08CF
:10187C00D6004B08D7004C08D80008003E08C10021
:10188C003F08C2004008C3000310420D430DC800BE
:10189C004808031D522CE02E3B08C1003C08C20036
:1018AC003D08C3000310420D430DC9004908031D38
:1018BC00602CE02E8930C501C601C7014907C10063
:1018CC00C8024008C9003D08C9068030C905183057
:1018DC00BF17C001BC17BD01C400C535C60DC70D6F
:1018EC003D084002031D802C3C083F02031D802C48
:1018FC003B083E02031C892C3B08BE023C08BF3B44
:10190C003D08C03B4514BE35BF0DC00DC40B732C38
:10191C004508A0004608A1004708A2004808A300FB
:10192C004908A40040272008BB002108BC0022085D
:10193C00BD0008004A08D0004B08D1004C08D2006A
:10194C000310510D520DD5004D08D0004E08D1009A
:10195C004F08D2000310510D520DD4005508031935
:10196C00C32C5408550254080318CB2CD00055082E
:10197C00D00219305002031CCA2C4D08CA004E0864
:10198C00CB004F08CC000800540803190800550878
:10199C0054020318D92C5508D0005408D002193021
:1019AC005002031808000630D300CC1BD317CF1BF2
:1019BC005317CB17CC01CE17CF015408550203187F
:1019CC00FE2CCD35CE0DCF0DD4035408550603197E
:1019DC00F92CD303530807390319F92CE72CCC360F
:1019EC00CB0CCA0CD50A550854060319182DF52C26
:1019FC00550854020318182DCA35CB0DCC0DD50340
:101A0C00540855060319142DD30353080739031929
:101A1C00142D022DCF36CE0CCD0CD40A55085406FD
:101A2C00031D102DD31F232DFF30CA06CB06CC0669
:101A3C00CA0A0319CB0A0319CC0A531F2B2DC9262A
:101A4C0088310319CE0A0319CF0AD3014A08CD07EE
:101A5C004B08CE3D4C08CF3DCF1F3C2DC9268831BD
:101A6C000319CE0A0319CF0AD301D30A4D08A000DB
:101A7C004E08A1004F08A2005508A3005308A4006B
:101A8C0040272008CA002108CB002208CC000800FF
:101A9C00F401A91F582DA809A909A80A0319A90A14
:101AAC00F401F40A2808A0002908A1008E30A20134
:101ABC00A3007408A40040272008A8002108A9004E
:101ACC002208AA0008002808A0002908A1008E30CE
:101ADC00A201A300A40140272008A8002108A90006
:101AEC002208AA0008006C07A03E8600870128087F
:101AFC00C03F2908C13F2A08C23F6C086C076C071D
:101B0C00AC3E86002808C03F2908C13F2A08C23FC6
:101B1C0008006C086C076C07A03E8600080056088D
:101B2C002100C900200057082100CA0020005808D5
:101B3C002100CB0049082000AC0021004A082000FD
:101B4C00AD0021004B082000AE00CD30AF004C3072
:101B5C00B0003D30B10008006C086C076C07AC3E5F
:101B6C00860008002808BB002908BC002A08BD0014
:101B7C00210049082000AC0021004A082000AD00DB
:101B8C0021004B082000AE006C08683E8600013036
:101B9C008700010808002808CA002908CB002A0879
:101BAC00CC004030BB01BC01BD006C086C076C075D
:101BBC00DC3E860001308700403FBE00413FBF0045
:101BCC00423FC00008002400C000413FC100423F1A
:101BDC00C200200008006C086C076C07DC3E860015
:101BEC00013087000800403FD900413FDA00423FF6
:101BFC00DB000800403FD600413FD700423FD800F1
:101C0C0008008600403F2400C100413FC20041084B
:101C1C008600420887004008810020006C350800CF
:101C2C006C086C076C07383E860001308700080092
:101C3C002400C0000030C101C035C10D4007840034
:101C4C009830413D8500003F0800C23F21006D08DF
:101C5C002400C000C036C03640082000A800A901EE
:101C6C0008004A08C03F4B08C13F4C08C23F08005F
:101C7C0024004008C03F4108C13F4208C23F200039
:101C8C0008002808BB002908BC002A08BD00080071
:101C9C00403FAF00413FB000423FB10008003B085D
:101CAC00CD003C08CE003D08CF0008006C086C3E0F
:101CBC0086000130870008006C076C07AC3E86007C
:101CCC0000308701C03F0800C53E8600FC3087010C
:101CDC00810521006508080087015608C03F570898
:101CEC00C13F58080800403FCA00413FCB00423F6B
:101CFC00CC0008008600013087000230810008000B
:101D0C002C08BE002D08BF002E08C00008003B08A0
:101D1C00C03F3C08C13F3D08C23F0800403FAC00FB
:101D2C00413FAD00423FAE0008002808AF00290833
:101D3C00B0002A08B10008005608BE005708BF00C2
:101D4C005808C00008002808D6002908D7002A081F
:101D5C00D80008002008C03F2108C13F2208C23F1C
:101D6C0008006C08643E86000130870008006C3562
:101D7C00E83E860001308700080081006C08C53EF3
:101D8C00860087010800FF30CD06CE06CF06CD0AAF
:101D9C00080001082400C00020006C350800C53E76
:101DAC00860087010108FC39080086006C35E93E85
:101DBC0084000134BB01BC01BD0108002C08B20039
:101DCC002D08B3002E08B4000310330D340DB500EC
:101DDC003508031DF22E852F2F08B2003008B300F2
:101DEC003108B4000310330D340DBA003A08031D4A
:101DFC00002F852F3A087B3EB5072E08BA00310814
:101E0C00BA068030BA05FF30AD17B017AF05B00574
:101E1C000730B101B601B701B801B9002C1C182F5D
:101E2C007E278831AE36AD0CAC0CAF35B00DB10D94
:101E3C00B90B142F0930B9002C1C262F7E278831A2
:101E4C00AE36AD0CAC0CB836B70CB60CB90B222FA9
:101E5C003608A0003708A1003808A2003508A300F6
:101E6C003A08A40040272008AC002108AD00220845
:101E7C00AE00080023080319482F2208210420046F
:101E8C00031D502FA001A101A2010800A30AA23634
:101E9C00A10CA00CFE30220503195E2F4C2FA30AB7
:101EAC00A00A0319A10A0319A20AA236A10CA00CBC
:101EBC00FF30220503196B2F552F02302302031C10
:101ECC006D2FA303A035A10DA20DA11F632F231C01
:101EDC00A113A3362308A700A601A5012508A00479
:101EEC002608A1042708A2042408031DA217080031
:101EFC002F08B6073008B73D3108B83D0800AC01D3
:101F0C00AD01AE010800DE2788310310610D620DB2
:101F1C00E8006808031D972FDC01DD01DE01DF01FD
:101F2C000800DE2788311730E236E10CE00C890B13
:101F3C009A2F6008E300DD17DE015C08E4005D0801
:101F4C00E5005E08E6008E30E701E802E81FBA2FD4
:101F5C006808803A8F3E031C922FE736E60CE50C9E
:101F6C00E40CE80FB32FC72F183068020318922F18
:101F7C0068080319C72FE435E50DE60DE70DE803F6
:101F8C00BE2F63080319D52FE409E509E609E70913
:101F9C00E40A0319E50A0319E60A0319E70A6708B4
:101FAC00DF006608DE006508DD006408DC00080060
:101FBC005C08E0005D08E1005E08E200080021001A
:101FCC0011143130200098002100E001BD01BC014A
:101FDC00BB01B801FA271110210011144F30200059
:101FEC009C00F9309B000800FE30200097000B305D
:041FFC009600080043
:10201600F8012030780203182B282108F500200843
:10202600F4000C229031E026903103194F06031973
:102036002B282000220886000230870021004E0847
:102046008100F80A2000A20AA00A0319A10A0C2896
:1020560078080800761F08007613FC30F705210083
:10206600440822003606031D3C28210043082200AE
:10207600350603194328350F6828360A031D6828D4
:102086002100420822003406031D59282100410878
:1020960022003306031D592821004008220032067B
:1020A600031D592821003F0822003106031966281E
:1020B600310F6828320A031D6828330A031D682871
:1020C600340A031D68289327903177080339013AAB
:1020D600031D8C28203086000130542790312000C3
:1020E600BD0016001A00BD0B7428C830B800A7271B
:1020F60090312200210820002106031D8628220097
:10210600200820002006031D8C287708FC39023899
:10211600F70077080339023A031D08007F2690313D
:102126002508103A03199E28303A03199F28103AB9
:102136000319A028A128882DAD2AA2280800F7286F
:10214600322690314D279031DA00413FDB00803056
:10215600F4001F30F50014219031672790312100DB
:102166005B082000A30021005A082000A2002722B5
:102176009031132981319B21903113297525903196
:1021860019279031EC0013297525903119279031C4
:10219600E100A030F4001F30F500142190316127D2
:1021A6009031210061082000A200A301272290316E
:1021B600210061085C2290312100EE0013292208DB
:1021C6002100EB002000A000203067229031C030B3
:1021D600A0001F30A1002030A20021006B082000C3
:1021E600A3007B229031132922002408003A031908
:1021F6000029103A03190B2913292308823A0319D7
:10220600E228623A0319C728103A0319A3281329AA
:102216002308003A0319BD28403A0319C128132997
:10222600632E8B1323001513750892007408910012
:10223600151615157F2590318F2F0B1721000E12BD
:1022460022000E1623009D171E1209303D00A40021
:102256004C302100E40023001E141E1C35292300E7
:102266001E17372923001E1322008E117711F7112E
:10227600BA302100C3000830C4001230C200343026
:10228600C1005630C0007830BF001730F900113059
:102296007902031C57297908C43E8600013087005D
:1022A600FE308100F9034A29AA302300D400F9013F
:1022B6002200C401C5010630790203188C29FE30BC
:1022C600F40079081A229031D33ED4269031AA38E8
:1022D6009D2790311A229031D23ED426903155381E
:1022E6009D2790311A229031D33E86000130870017
:1022F60001082200C4070318C50AFE30F400790855
:102306001A229031D23E860001308700462790314E
:102316005E294508CD004408CC004D08AA382300A4
:10232600C70022004D0855382300C60022004C087D
:10233600AA382300C50022004C0855382300C400E3
:102346001030F9000B307902031CB62979084C3E8F
:102356008600013087007908B43E840085010008B4
:102366008100F903A529A22790310C2290316D270F
:1023760090315A0A3F3003195B06031DCF296727A0
:102386009031A201A20AA30127229031A2279031FF
:102396000C2290316D279031A030F4001F30F500EB
:1023A6000C229031E026903103194F06A030031D10
:1023B600E929F4001F30F50014219031612790318E
:1023C6000430A200A30127229031A030F4001F3070
:1023D600F5000C22903174082100E1005C22903156
:1023E6002100EE00C030F4001F30F5000C229031C1
:1023F600E026903103194F0603190800C03020006B
:10240600A0001F30A1002030A2000B202100EB000D
:102416000800750823009200740891001514000046
:10242600000023001408F5001308F400080020003B
:10243600A100A00174082118A007F435A1362108CF
:10244600031D1D2A200808008B13230015132000E6
:10245600210823009200200020087F279031960053
:10246600AA30960095140000000023001512951658
:102476002000230823009400200022082300930054
:10248600951255309600AA3096009514000000006B
:1024960020002108F5002008F4000C2290312000CD
:1024A60023087506031D592A22087406031D272AC8
:1024B6008F2F2000A400A0000530A101A200A301D7
:1024C6006025903105270800A1002008780203182E
:1024D60008002108860002308700752590317408AF
:1024E600840075088500000881002000A10A682A7A
:1024F6008B132300151320002108230092002000CF
:1025060020087F2790319600AA3096009514000087
:102516000000230015129516F801992A7F2590319F
:102526002000A20A2300910A0319920A2000220819
:102536008600023087000108230093009401F80A00
:10254600200023087802031C912A230095127F2578
:1025560090318F2F6A2C770C2000B900B90C390CFA
:102566000139B3249031B22C20000130A401A5001A
:10257600C52490318030A400A501C52490310430D3
:10258600A400A501C52490312030302790311625AE
:10259600903121006E082000A400A501C5249031C9
:1025A60021006108B32490310630B32490312727E7
:1025B6009031C5249031A401A501C5249031003085
:1025C600B3249031B22C27279031C5249031B22CF8
:1025D6007B302000A4009A30A5001930A6000525FE
:1025E6009031B22C203020003027903116259031C2
:1025F600B22C5C302000A4009A30A5001F30A60043
:1026060005259031B22C78082000B9001E30BA0199
:10261600B935BA0D390784009A303A3D8500003F36
:10262600A400013FA500C5249031F80A0C307802B9
:102636000318B22C062B7525903119279031CE0040
:10264600CF014F085A279031C52490310130B32469
:1026560090310230B32490310130B32490310030F0
:10266600B32490310030B32490310030B32490313C
:102676009827903116259031FF30A000A100A200C6
:10268600A300162590319827903116259031B22C4B
:1026960021006C08B3249031B22C21006108B324C8
:1026A60090310630B3249031B22C752590317408E0
:1026B60086007508870001082000EC00B3249031DD
:1026C600202790316025903105279031A400A5017F
:1026D600C52490312027903160259031210885004E
:1026E60020088400FD3084079930853D003FA40012
:1026F600013FA500202790316025903121088500F3
:1027060020088400FF3084079930853D0008A60024
:1027160005259031B22C04302000A400A501C52463
:102726009031B22CA4302000A4009A30A5000E30BF
:10273600A60005259031B22C94302000A4009A30D2
:10274600A5001030A60005259031B22C20302000BF
:10275600A4000230A50021006B082000A600052574
:102766009031B22C053021006102031CCA2BD02BFC
:1027760084279031C52490317808E7269031B32418
:10278600903178089E269031C5249031F80A2100B0
:10279600610878020318B22CBB2B0430F800210024
:1027A600610878020318B22C84279031C524903131
:1027B6007808E7269031B324903178089E26903128
:1027C600C524903179279031C52490317908E726C0
:1027D6009031B324903179089E269031C5249031EA
:1027E600F80AD22B322690314D279031CE00413F48
:1027F600CF005A279031C52490310530210061025F
:10280600463084009A3085000318192C003FEF26C5
:10281600903105259031FA269031B32490317327F3
:1028260090310F27903105259031B22C003FEF26CD
:10283600903105259031FA269031B324903121004C
:102846004E182D2C7327903120000F279031052527
:102856009031B22C4C3084009A308500003F200025
:10286600A400013FA5004E3084009A308500000880
:10287600A60005259031B22C053021006102031C0B
:102886004D2C532C84279031C52490310030B3242D
:102896009031F80A2100610878020318B22C452C01
:1028A6000430F8002100610878020318B22C84274E
:1028B6009031C52490310030B3249031792790317E
:1028C600C52490310030B3249031F80A552C2200EB
:1028D6002408003A0319762C013A03199F2C113A61
:1028E6000319AA2CB22C2308503A0319192B013AC2
:1028F60003191E2B313A0319B72A103A03198E2BE6
:10290600F03A0319952B013A03199F2B033A031941
:10291600A92B423A0319EB2A013A0319F52A033A7D
:102926000319FC2A223A0319502B013A0319582B92
:10293600113A0319E62AB22C2308203A0319B52BBB
:10294600013A0319F52B033A03193F2CB22C23083D
:10295600003A0319AE2A403A03194B2BB22C632EC8
:102966002000A0002200CE0A2330F5004E087C3C51
:10297600F400031CF5038600750887002000200874
:10298600810008002200CE0ACE0A4E18E52C4E0819
:102996002000A600A636A8012608323CA700031C84
:1029A600A8031830A735A80DA9002330AA002708C8
:1029B6002907860028082A3D87002408C03F2508E5
:1029C600C13F080023302000A70022004E087C3CAF
:1029D6002000A600031CA7038600270887002408FA
:1029E60081002508A6002330A80022004E087D3C61
:1029F6002000A700031CA8038600280887002608D5
:102A060081000800F9012608790203180800240845
:102A16008400250885000008B3249031F90AA40A29
:102A26000319A50A062D04302200CE074E080339E5
:102A3600031D3F2D4E082000A400A436A436A6018F
:102A46002408193CA500031CA6031830A535A60DBD
:102A5600A535A60DA7002330A80025082707860060
:102A66002608283D87002008C03F2108C13F2208CC
:102A7600C23F2308C33F080023302000A5002200E0
:102A86004E087C3C2000A400031CA50386002508F4
:102A96008700200881002108402790317D3CCA2606
:102AA60090312208402790317E3CCA269031230877
:102AB600402790317F3CCA260800F401F501201C0E
:102AC600682D2208F4072308F53DA235A30DA1368B
:102AD600A00C20082104031D622D7508A1007408AE
:102AE600A0000800F80A2330F500E030F40078086A
:102AF600F402031CF5030800553023009600AA30A3
:102B060096009514000000000800202E7708FC3976
:102B16000138F70077190800932790313226903153
:102B26008927903149269031C4269031AD269031BF
:102B36004402031DA22D2000390821004302031C74
:102B4600C72D77080339200084269031031DC72D31
:102B5600500886005108B82690314202031DC32D45
:102B660020003B0821004102031DC32D20003A0826
:102B760021004002031DC32D2000390821003F0219
:102B86000318C72DFC30F70532269031892790317E
:102B960049269031C4269031AD2690314408200054
:102BA6003A02031DDA2D2100430820003902031CD6
:102BB600002E7708033984269031031D002E500815
:102BC60086005108B8269031420820003C02031DB9
:102BD600FC2D2100410820003B02031DFC2D210095
:102BE600400820003A02031DFC2D21003F0820006A
:102BF60039020318002EFC30F70577080339033A2B
:102C0600031D080022008E15DB302100E400D401EC
:102C1600D501E3019112382705302100E0000800B4
:102C260077150230CE007A308600233087000030D8
:102C3600C03FC13F632E77111D2E22002408003AA3
:102C46000319262E312E2308013A0319892D033A3A
:102C56000319132E013A03191E2E312E0800F80A05
:102C6600F80A2330F2001830F10078082000A0009E
:102C7600A036A2012008643CA100031CA203A135D2
:102C8600A20D2108F1072208F23D08000430F807DA
:102C96002330F2001830F10078082000A000A0369A
:102CA600A036A2012008323CA100031CA203A135D4
:102CB600A20DA135A20D2108F1072208F23D080058
:102CC600D62790314C308600013054279031F400DD
:102CD60016001A00F40B6B2E64302000B800A727EC
:102CE600903121082200CD00200020082200CC00CF
:102CF60001302100E300F52F2200CE01F801F90191
:102D06000800B900B90A77083906FC393906F70010
:102D160021005208860053088700403F2000B90072
:102D2600413FBA0021004406031D0800200039086F
:102D3600210043060800B9003630BA01B935BA0D8C
:102D4600390784009A303A3D8500003FA400013FD0
:102D5600A50008005208860053088700403F20005F
:102D6600B900413FBA00210008008700403F20001B
:102D7600B900413FBA00423FBB00433FBC002100BF
:102D8600080072082100D1007108D0000800200058
:102D9600A500031CA60386002608870024088100D8
:102DA6000800860001308700C430A5007908A50216
:102DB6002508840085010008080075082100CF0059
:102DC6007408CE004E0A3F344F3E84009A300318F2
:102DD600013E8500000808002000A400013FA50070
:102DE600483084009A3085000008A60008002100BB
:102DF6004F0885004E088400573084079A30853D79
:102E0600000808002108850020088400FC3084079B
:102E16009930853D00080800A400013FA5004B300D
:102E260084009A3085000008A60008007408860011
:102E3600750887000108210008006C08A00005300D
:102E4600A101A200A301080021005B082000A50043
:102E560021005A082000A4000800A3001730A20091
:102E66001030A1001930A000080023009E16FF3084
:102E760020009700F53096000800A4002330A60035
:102E860022004E08080001082200C4070318C50ADC
:102E9600F90A08007108860072088700403F210081
:102EA6000800870020308400003085001834200098
:102EB600A50021004E082000A4000800A030200034
:102EC600A0001F30A100080080302000A0001F30A5
:102ED600A100080075082100DB007408DA0008006C
:102EE600493084009A308500003F08007808013E8A
:102EF600F900A400A5010800230091001516151578
:102F0600553478082000A400A501080072082100A5
:102F1600D3007108D2000800230015118B17080092
:102F26007708FC390138F7000800A001A101A201C9
:102F3600A30108008100FE30F40079080800803003
:102F4600F4001F30F5000800CD302200C400173011
:102F5600C501F80002307802031CBB2F7808203E1A
:102F6600860087010108C4070318C50AF803AD2FB8
:102F760020003808FF3EF80022083802F9007908D8
:102F86007802031CCD2F790881318C219031462798
:102F96009031C22F220045082000A10022004408DB
:102FA6002000A00008002B30860001308700403F3B
:102FB6002200DD00413FDE00423FDF00433FE000EC
:102FC6003008E2002F08E1002A08D6002508013E55
:102FD600D1002408D0002308CF004E08183EE30095
:102FE600D501080023009E1201302100CC00CD013E
:102FF60082317E2222008E15080000340034C83447
:103006000034CC340034D1340034D6340034DB34CC
:103016000034E1340034E6340034EC340034F13466
:103026000034F7340034FD340034033401340934F9
:10303600013410340134163401341D34013424347F
:1030460001342B34013432340134393401344134FF
:103056000134493401345134013459340134613472
:1030660001346A340134723401347B3401348434DB
:1030760001348E34013497340134A1340134AB3435
:103086000134B5340134C0340134CB340134D63480
:103096000134E1340134EC340134F83401340434BD
:1030A6000234113402341E3402342B3402343834E0
:1030B60002344634023454340234623402347034F6
:1030C6000234803402348F3402349F340234AF34F5
:1030D6000234BF340234D0340234E1340234F334DF
:1030E600023405340334183403342B3403343E34A9
:1030F600033452340334673403347C340334913458
:103106000334A7340334BE340334D5340334EC34E7
:103116000334043404341D34043436340434503453
:1031260004346B34043486340434A2340434BE3498
:103136000434DC340434F9340434183405343734B4
:10314600053457340534783405349A340534BC34A0
:103156000534E034053404340634293406344F3457
:103166000634763406349D340634C6340634F034D8
:1031760006341A3407344634073473340734A1341A
:103186000734CF3407340034083431340834633418
:10319600083497340834CB340834023409343934CB
:1031A600093472340934AC340934E734093424342C
:1031B6000A3463340A34A2340A34E4340A34273431
:1031C6000B346B340B34B2340B34FA340B344334D3
:1031D6000C348F340C34DC340C342B340D347C3406
:1031E6000D34CF340D3424340E347B340E34D434C1
:1031F6000E342F340F348C340F34EC340F344E34F9
:103206001034B23410341934113482341134EE349B
:1032160011345C341234CD34123441341334B7349F
:10322600133430341434AC3414342C341534AE34F2
:10323600153433341634BC34163447341734D73483
:10324600173469341834FF34183499341934373440
:103256001A34D8341A347D341B3426341C34D3340F
:103266001C3484341D343A341E34F4341E34B234DF
:103276001F34753420343D34213409342234DA3491
:103286002234B13423348C3424346D34253453340D
:1032960026343F3427343034283427342934243430
:1032A6002A3428342B3431342C3441342D345734D9
:1032B6002E3474342F3498343034C3343134F534E6
:1032C60032342E3434346F343534B734363408342B
:1032D600383461343934C1343A342B343C349D3477
:1032E6003D3418343F349C34403429344234C0349D
:1032F6004334613445340B344734C03448347F3466
:103306004A344A344C341F344E34FF344F34EB3491
:103316005134E3345334E7345534F73457341434E2
:103326005A343E345C3475345E34BA3460340D3409
:1033360063346E346534DE3467345D346A34EB34BA
:103346006C3488346F3436347234F5347434C4349F
:103356007734A5347A3497347D349B348034B23450
:103366008334DC34863419348A346A348D34D03468
:1033760090344B349434DB34973480349B343D346E
:103386009F341034A334FB34A634FE34AA341934E3
:10339600AF344E34B3349D34B7340634BC348A3437
:1033A600C0342A34C534E734C934C034CE34B834D2
:1033B600D334CE34D8340334DE345834E334CE3404
:1033C600E8346634EE342034F434FD34F934FF3412
:1033D600FF34FF34FF34FF34FF34FF34FF34FF344F
:1033E600FF34FF34FF34FF34FF34FF34FF34FF343F
:1033F600FF34FF34FF34FF34FF3401340134FD342D
:103406009A34053402340234F7349A3405340334DA
:103416000334F1349A34053404340434EB349A34E6
:10342600053405340234CC349A340C34063404346E
:10343600BF349A340C347034003480340034813410
:10344600003482340034C1340034C2340034E034F1
:103456000034E13400342034013421340134223480
:103466000134403410340134003401340034013462
:103476000034013400340134003408340234013499
:10348600003408340234D9349A340934B2349A34C4
:103496000C34E3349A3407340034003400340034F6
:1034A60000340434003404343034313432343334A8
:1034B600003444344D3458342C3420345434553488
:1034C6004E34413442344C34453420345734483435
:1034D6004934543445342C3420343134363462344F
:1034E600693474342034663469346E346534003497
:1034F6004D344534543445344F34523420344C34EE
:10350600493447344834543449344E3447342034EB
:1035160053344F344634543457344134523445349A
:1035260000344D344534543445344F345234203409
:103536004C34493447344834543449344E3447348F
:1035460000344D344534543445344F3452342034E9
:1035560044345234493456344534523400344C34AD
:103566004534443420344934543445344E34533489
:1035760049345434593400344C344F3447342034AD
:1035860032342C34203443344334543420343234EB
:1035960000344C344F344734203431342C34203406
:1035A60043344334543420343134003450345734A3
:1035B6004D34203453344C344F3454342034003496
:1035C6004C34453444342034433443345434003486
:1035D6004C344F3447342034343400344C344F3474
:1035E60047342034333400344C344F344734203499
:1035F600323400344C344F344734203431340034C0
:020000040001F9
:04000E00E4F9F9DF39
:00000001FF
