:040000008031132810
:100008007E1480318731622780318531D425803153
:100018008331D72380318631B2267E1009008031A2
:10002800152821000230EB006430EC01ED01EE01EF
:10003800EF0022000130E400E501E601E701E801F4
:10004800E901EA01EB01EC00ED01EE01EF0123000B
:100058004030DC01DD01DE007C30DF01E001E10140
:10006800E201E301E401E501E601E7018400233050
:1000780085006430FE00FF01873140278031F6019A
:10008800F701F801F9012000A030EC0184000030EC
:1000980085004B30FE00FF0187314027803120303A
:1000A8008400013085004430FE00FF01873140277D
:1000B8008031A0308400013085003C30FE00FF0113
:1000C8008731402780317E1020006A283B00940148
:1000D800A401B401C4019301A301B301C301C02366
:1000E800803103303D0092000430A0000530A100AB
:1000F8000630A200FF3020009B00F030210099005C
:1001080098010E118E100E100C1123000E118E1076
:100118000E100C1120000E118E100E100C113B0049
:10012800C201B201A2019201C101B101A101910173
:10013800FF30C600B600A6009600C500B500A500B1
:100148009500CE01BE01AE019E0121008E11230053
:100158008E11C0308B001D238031F3208031262181
:1001680080319B21803180303B00CB00BB00AB004D
:100178009B00F4001F30F500E5208031BA23803160
:10018800580A3F30031959068030031DD52820002E
:10019800A0001F30A100A201A20AA3014A228031B7
:1001A8008030F4001F30F500E5208031BA23893112
:1001B8004F218031FF2080312323803185228031F7
:1001C800DB287508230092007408910015140000BC
:1001D800000023001408F5001308F40008002100AB
:1001E8000C1623000C160D3021009D0070309E0067
:1001F80020001113080021005A1C0800D401D50161
:100208005A105B08F4000130C62380319030753DE8
:10021800850000083B00C400B400A400940021003D
:100228005B08F4000030C62380319030753D8500AE
:1002380000083B00C300B300A3009300C0232100C3
:100248009D14080015303C00950021008E16903052
:1002580023009D001E129F011E159C0107309B0064
:10026800210091160D302300B9009330B8000D30ED
:10027800BB00A330BA000D30BD00B330BC000D3058
:10028800BF00C330BE000D30B1009430B0000D3057
:10029800B300A430B2000D30B500B430B4000D3056
:1002A800B700C430B6000D30A1009F30A0000D305B
:1002B800A300AF30A2000D30A500BF30A4000D3060
:1002C800A700CF30A6000D30A9009330A8000D304C
:1002D800AB009330AA000D30AD009330AC000D3068
:1002E800AF009330AE002000EC0104306C0203181C
:1002F8000800B32380316C35643E860001308700E6
:10030800CC23803F81006C08BF3E86008701011125
:10031800A001A101A2018E31D7268031A6238F31F9
:100328004A2780318600A6238031EC0A79292100EA
:10033800DD01BD01BC01BB01B80184313C24803121
:100348001110210011140B1722000E1621000E1295
:1003580023009E169D171E1209303D00A4004C3044
:100368002100E00023001E141E1CBD2923001E17B7
:10037800BF2923001E137711F71121001830D80167
:10038800D80AD901F90011307902031CD429790857
:10039800C43E860001308700FE308100F903C7297A
:1003A800AA302300D400F9012100C601C701063094
:1003B80079020318092AFE30F40079083D228031B9
:1003C800D33E93238031AA38D22380313D22803115
:1003D800D23E932380315538D22380313D2280315B
:1003E800D33E86000130870001082100C6070318A4
:1003F800C70AFE30F40079083D228031D23E8600DB
:10040800013087009F238031DB2947082200CD0077
:10041800210046082200CC004D08AA382300C70056
:1004280022004D0855382300C60022004C08AA387F
:100438002300C50022004C0855382300C4001030A2
:10044800F9000B307902031C080079084C3E86003D
:100458000130870092302000A3007908103CA200E8
:10046800031CA30384002308850000088100F90306
:10047800252A2000A100A00174082118A007F4353E
:10048800A1362108031D402A200808008B132300E9
:1004980015132000210823009200200020082300C3
:1004A80091001516151555309600AA30960095142A
:1004B80000000000230015129516200023082300D1
:1004C80094002000220823009300951255309600CE
:1004D800AA30960095140000000020002108F500BD
:1004E8002008F400E5208031200023087506031D4C
:1004F8007F2A22087406031D4A2A230015118B1728
:100508000800761F08007613FC30F705BA30220081
:1005180035060830031936060319972A350FB32A0A
:10052800360A031DB32A78303106563003193206CD
:100538003430031933061230031934060319AF2A6D
:10054800310FB32A320A031DB32A330A031DB32A13
:10055800340A031DB32A7708FC390138F7007708F5
:100568000339013A031DD72A203086000130AD2314
:1005780080312000BD0016001A00BD0BBF2A643070
:10058800B800EE2280312200210820002106031D38
:10059800D12A2200200820002006031DD72A770828
:1005A800FC390238F70077080339023A031D0800BE
:1005B80022002508103A0319E82A303A0319EA2AD2
:1005C800103A0319EC2AED2A8431B62C8431422CD6
:1005D8005F2B0800CD302100C6001730C701F80096
:1005E80002307802031C022B7808203E860087011F
:1005F8000108C6070318C70AF803F42A20003808B8
:10060800FF3EF80022083802F90079087802031C36
:10061800142B790887313A2780319F238031092BA1
:10062800210047082000A100210046082000A00062
:1006380008002100111431302000980008003E1CE9
:10064800080020008C1E2B2B23009D172D2B230028
:100658009D1320008C1E332B20008E15352B200077
:100668008E118C1E3A2B210091163C2B21009112E1
:100678003E1020008C1A432B21001117452B210016
:10068800111320008C1A4B2B21001D144D2B210017
:100698001D1020008C1A532B21009D14552B21006E
:1006A8009D1023001908F400200011137611013061
:1006B8002100E50008007E2BDE308600233087000D
:1006C800403F2100D800413FD90080302000A000E1
:1006D8001F30A100210059082000A300210058085C
:1006E8002000A2004A2280312200CE01912B08303E
:1006F800F706912B22002408003A0319872B103A99
:1007080003198C2B912B2308F03A0319602B912B9A
:100718002308003A03197B2B912B8531232D860062
:10072800013087007908003E840092300318013EAA
:1007380085000008080001082100C6070318C70A39
:10074800F90A08002008C03F2108C13F2208C23F1B
:1007580008008700203084000030850018346C08B9
:10076800EB3E8600023087018100080075082100F1
:10077800D9007408D80008008030CF00BF00AF004F
:100788009F000800F501F435F50D74078400080092
:100798006C35653E84000130850008008100FE301C
:1007A800F400790808002100111C08002000111C21
:1007B800080011102F2CDD0120008C1EE52B0130C4
:1007C800E62B0030F0002100111FEC2B0130ED2B3F
:1007D8000030700603193E143C2483312100D40AEA
:1007E8000319D50A60305406093003195506031D4C
:1007F800022C6130D4000930D5007615B90A0319E6
:10080800BA0A3814E8303906033003193A06031DCA
:100818000800B901BA01BB0AB8143C303B06031DF5
:100828000800BB01BC0A38153C303C06031D080013
:10083800BC01BD0AB815080022000E16A22D23001F
:100848009E1621001116FC3020009700DF3096001C
:100858002100DD01080021005D08003A0319E02BA2
:10086800013A0319202C033A0319232CDF2B080023
:10087800FE30200097000B30960008009F2C0130B6
:10088800CE00770C2000B900B90C390C0139BA0038
:10089800A3308600233087003A088100B52C133036
:1008A800CE0020000130B901BA00A2308600233002
:1008B80087003908C03F3A08C13F8030B900A030EE
:1008C800C82583310430B9009E30C82583312330D0
:1008D8002100CD009A30CC0086004D0887000330F7
:1008E800C03F1030C13F0030C23FC33F043020003A
:1008F800C12583315C313908C03F3A08C13F013016
:10090800C12583315A313908C03F3A08B4258331AB
:100918005831CF258331B425833100305631C03F5B
:10092800B425833155318101B52CBA258331CF25C2
:100938008331C13FB52C22002408003A0319A82CA2
:10094800103A0319B02CB52C2308603A0319532C1C
:10095800903A0319992CB52C2308003A0319432C13
:10096800B52C232D112D771908007708FC3901388B
:10097800F70023302100CF00DE30CE002330CD0039
:10098800DA3095258331BA30031939020318D92C86
:1009980071258331031DD92CAB2583317930872507
:1009A8008331031CD92CFC30F70523302100CF00FC
:1009B800D830CE002330CD00D43095258331BB30DC
:1009C80003193902031CF52C71258331031DF52CFD
:1009D800AB2583317830872583310318F52CFC301B
:1009E800F70577080339033A031D080022000E169D
:1009F80023009A01DB302100E0000230D001D10150
:100A0800DF0022008E15A22D7715BA25833100301C
:100A1800C03FC13F232D7711092D22002408003A39
:100A28000319172D222D2308013A0319B72C033A6D
:100A38000319082D013A03190F2D222D0800CC3077
:100A480023009A0043254C30860001308331AD23C2
:100A58008331F40016001A00F40B2E2D28302000E4
:100A6800B8008231EE22833121082200CD00200017
:100A780020082200CC0001302100DF00622D2B303D
:100A8800860001308700403F2200DD00413FDE0044
:100A9800423FDF00433FE0003008E2002F08E1005A
:100AA8002A08D6002508013ED1002408D0002308D2
:100AB800CF004E08183EE300D5010800FF302000A3
:100AC80097000B30960001302100DD0022000E1245
:100AD8008E152100C800C901080077080339B9003C
:100AE800B90A77083906FC393906F70021004E089B
:100AF80086004F0887001600BA3A2000B900160091
:100B0800083AB90408003902413FB9005630393B68
:100B1800423FB9003430393B433FB9001230393BCA
:100B28000800CC004E0886004F088700403F200090
:100B3800B900413FBA0008303A020800FF302000EF
:100B48009700F530960002302100DD0008002100F2
:100B58004C0886004D088700403F2000B900080077
:100B6800C13F7C3086002330870008000230CE0069
:100B7800A2308600233087000800B9007C30BA0113
:100B88008600233087000800BA0186003908C03F74
:100B98003A08C13F080021005808C03F590808001A
:100BA80001302100911E00392000911E0039091CD6
:100BB800080023001D1D912E1908F200F6140130BB
:100BC8002100E500D401D501912E23001908F20077
:100BD8009C2E2000911E9C2E23001908F2007208FA
:100BE800031D022E02302100E500E730E600013047
:100BF800D600D7016408EF00E4019C2ECC307206C1
:100C0800031D0A2E03302100E5009C2E2100E5017A
:100C18009C2E23001908F200210059085702031DD1
:100C2800172E58085602031C232E58085904031976
:100C3800232E66088600870172088100E60AD60A14
:100C48000319D70A5808043EF0000030593DF10056
:100C58005702031D312E70085602031C9C2E58089B
:100C6800590403199C2E7614AD2685319C2E230039
:100C78001908F200720B9C2E04302100E500173091
:100C8800F800CA018D2E23001908F2007808203ECA
:100C98008600013087007208810002307806031D43
:100CA800662E7808203E860001080319662E21006A
:100CB8004A084B04031D662E0530E5006330F90031
:100CC800F8039C2E7808031D642E76172100AD26A4
:100CD8008531642E23001908F20079087C3EF00063
:100CE8002330F101F13D7008860071088700720811
:100CF8008100F10122002208643CF000031CF1038A
:100D080079067104031D8F2E04302100E50001309F
:100D1800CA00CB019C2EF9039C2E21006508840093
:100D28000630040203189C2E873104354C3E82009D
:100D380021005508803AF00089307002031DA62E64
:100D480061305402031C080076152100D401D50136
:100D58000800E501D401D501761108002100111E13
:100D680008002000111E0800232F48034904031D12
:100D7800C32EC801C901CC3023009A0008000130F5
:100D880023009A0063302100E0000330D001D10134
:100D9800DF000800DF010800003051021930031994
:100DA80050020318DB2E2F270319D10A080022004E
:100DB8000E1623009E122100111222008E11080027
:100DC800003051021930031950020318DB2E2F2767
:100DD80086310319D10A163050065104031D080044
:100DE80022004E0803190800210048084904031D81
:100DF80008000430DF002730DE0008005E083A27CC
:100E08008631010823009A00F10122004E08283C8F
:100E1800F000031CF10321005E08F200F3017108E1
:100E28007306031D192F70087206031D212F033046
:100E3800DF000130C800C9010800DE0308002100F6
:100E48005F08840005300402031808008731043560
:100E5800583E8200080060088600013087000108BB
:100E680023009A002100E003D00A08007C3E860097
:100E780023308701873D080064000130800101317B
:100E8800FE020030FF3B7F087E0403190034412F27
:100E98008531E92D8531ED2D86310D2E86313B2E9C
:100EA8008631472E86316E2E8631D02E8631B92E68
:100EB8008631CE2E8631E42E8731022F2000111F75
:100EC800080021001C08DB005A1420001113080038
:10129E002000EC01761CF92A76102100E3010330C0
:1012AE00E200043020006C020318F92A6C08E73EB5
:1012BE008600870101082100E10020004A278931BC
:1012CE008600D2278931210061080C248931280833
:1012DE00AF002908B0002A08B1001C248931031878
:1012EE00DD296C081F2789312C27893121006108DF
:1012FE000C2489312808D9002908DA002A08DB00D5
:10130E0048248931BA2689311C2489316C08031886
:10131E009929842789310C2489316C086C0787261A
:10132E0089315A2AEC27893101389D2689316C077B
:10133E006C07A03E86008C2789316C08EB3E860038
:10134E0001080C248931DD2689310C248931D927F5
:10135E0089316D258931C4278931632489317D27EF
:10136E008931BF2489316C081F2789314A08C03F53
:10137E004B08C13F4C085C278931072689316F27FE
:10138E008931D726893187012C2789314A2789311E
:10139E0086002527893148248931A927893163247C
:1013AE00893142278931CB2789315A2A2100610898
:1013BE000C2489312808AC002908AD002A08AE009B
:1013CE006C081F278931762789311C24893103182F
:1013DE004D2A210061080C248931B02789314A2712
:1013EE0089311627893148248931BA2689311C243E
:1013FE0089316C0803180C2A842789310C24893111
:10140E006C086C07872689315A2AEC2789310238F5
:10141E009D268931EB3E860001080C248931DD269C
:10142E0089310C248931D92789316D258931C42719
:10143E008931632489313B08D6003C08D7003D082A
:10144E00D8004A27893116278931482489316C08FA
:10145E001F278931BE2789315C27893107268931BB
:10146E006F2789316C081F2789312C278931D726A0
:10147E0089312527893148248931A9278931632467
:10148E00893142278931CB2789315A2A21006108B7
:10149E000C2489316C086C07872689316C08BF3E95
:1014AE008600FC3081056C08E73E860087016C08DB
:1014BE00C03E84000130850000080106031D9B2AF2
:1014CE006C08BF3E860001199B2AF2278931810ADA
:1014DE006C35643E860010300106031D892A6C357A
:1014EE00643E86006C35653E84000130803F81008D
:1014FE008331B32389316C08BF3E860001156C0819
:10150E00A2278931F227893101080C248931F62668
:10151E008931632489317D278931BF2489310E2792
:10152E00893168278931EC2A6C08EB3E86008701E9
:10153E008331CC23893100082300E80020006C356C
:10154E00643E8400000823006807810020006C358B
:10155E00653E8600013087006C35643E84000008CD
:10156E0081006C35643E860001080C248931F62614
:10157E008931632489317D278931BF2489310E2732
:10158E008931682789316C35643E86008101810A74
:10159E006C08BF3E8600663087010111AC00063034
:1015AE00AD004030AE000E278931762789311C24DC
:1015BE0089316C080318EA2A6C3E860001308700D8
:1015CE008101810AEC2AA22789316C08C03E86006F
:1015DE00013087006C08E73E840085010008810019
:1015EE00EC0A582921003818F7190800E40A3810B7
:1015FE002000EC012100E30A6208031D0A2C6F088B
:10160E00630203180A2C0330E200F52B42278931BE
:10161E008C278931D72689318701403FCD00413F44
:10162E00CE00423FCF00BF248931D72689318701B2
:10163E00682789317F30AC01AD004330AE00D7262C
:10164E008931762789311C2489316C080318582B6F
:10165E00932789317F30C13F4330C23F572B4227FA
:10166E0089312C278931D726893187012527893160
:10167E0048248931D72689318701BE278931C23F57
:10168E00D7268931D2278931AF01B001B1011C248F
:10169E0089316C080318582B93278931C13FC23FFB
:1016AE006C086C076C07AC3E86008701403FDC007F
:1016BE00413FDD00423FDE00222689315C082100D9
:1016CE00E1004F278931EA00013FEB00210061085C
:1016DE002300EC000230ED01EC35ED0D6C078400BB
:1016EE0090306D3D8500003FEE00013FEF006A082F
:1016FE006E022000A80023006B086F3B2000A9009B
:10170E00772689312808AF002908B0002A08B100D1
:10171E00D7268931870125278931210061080C24BC
:10172E008931B0278931482489315608AC005708D1
:10173E00AD005808AE006D2589312C08E9002D0842
:10174E00EA002E08EB00210061084F2789312000A6
:10175E00A800013FA900772689312808CD00290865
:10176E00CE002A08CF006908CA006A08CB006B08B1
:10177E00CC00BF2489314A08DC004B08DD004C0840
:10178E00DE00222689316C35443E8600013087000A
:10179E005C08C03F5D08C13F6C35453E8600E027C2
:1017AE008931B03E33278931443E860001308700AF
:1017BE00E0278931B83E33278931A03E86000130BB
:1017CE008700403F2300E800413FE900680886009B
:1017DE0069088700803081002000EC0A0430200068
:1017EE006C02031808006C08BF3E860087010108D2
:1017FE0003390319572B013A03190D2B033A031919
:10180E00362B572B572BE2030800F4002000A000C4
:10181E008E30A101A201A300A401C9252008A800B1
:10182E002108A9002208AA000800AE1F2B2C2C08A4
:10183E00003CAC002D08031C2D0F003CAD002E0803
:10184E00031C2E0F803CAE00B11F3A2C2F08003C1B
:10185E00AF003008031C300F003CB0003108031CF1
:10186E00310F803CB1008030AE06B10631082E0239
:10187E00031D080030082D02031D08002F082C023E
:10188E00080058085704560403194F2C8030D80608
:10189E005908CA005A08CB005B08CC005608CD0088
:1018AE005708CE005808CF00BF244A08D6004B0870
:1018BE00D7004C08D80008003E08C1003F08C200FF
:1018CE004008C3000310420D430DC8004808031D15
:1018DE00712CF82F3B08C1003C08C2003D08C30024
:1018EE000310420D430DC9004908031D7F2CF82F2C
:1018FE008930C501C601C7014907C100C8024008A9
:10190E00C9003D08C9068030C9051830BF17C0018F
:10191E00BC17BD01C400C535C60DC70D3D0840023C
:10192E00031D9F2C3C083F02031D9F2C3B083E02CB
:10193E00031CA82C3B08BE023C08BF3B3D08C03B25
:10194E004514BE35BF0DC00DC40B922C4508A0002A
:10195E004608A1004708A2004808A3004908A400B1
:10196E00C9252008BB002108BC002208BD000800C4
:10197E004A08D0004B08D1004C08D2000310510D7C
:10198E00520DD5004D08D0004E08D1004F08D200A0
:10199E000310510D520DD40055080319E22C5408B2
:1019AE00550254080318EA2CD0005508D0021930FD
:1019BE005002031CE92C4D08CA004E08CB004F08FC
:1019CE00CC000800540803190800550854020318E7
:1019DE00F82C5508D0005408D002193050020318C4
:1019EE0008000630D300CC1BD317CF1B5317CB17D1
:1019FE00CC01CE17CF015408550203181D2DCD353D
:101A0E00CE0DCF0DD403540855060319182DD3034C
:101A1E00530807390319182D062DCC36CB0CCA0CDA
:101A2E00D50A550854060319372D142D550854029E
:101A3E000318372DCA35CB0DCC0DD50354085506DA
:101A4E000319332DD303530807390319332D212DD1
:101A5E00CF36CE0CCD0CD40A55085406031D2F2DAF
:101A6E00D31F422DFF30CA06CB06CC06CA0A031975
:101A7E00CB0A0319CC0A531F4A2DE62789310319C5
:101A8E00CE0A0319CF0AD3014A08CD074B08CE3D23
:101A9E004C08CF3DCF1F5B2DE62789310319CE0AA7
:101AAE000319CF0AD301D30A4D08A0004E08A10096
:101ABE004F08A2005508A3005308A400C92520080A
:101ACE00CA002108CB002208CC0008002C08B20066
:101ADE002D08B3002E08B4000310330D340DB500DD
:101AEE003508031D7B2DFC2F2F08B2003008B300E4
:101AFE003108B4000310330D340DBA003A08031D3B
:101B0E00892DFC2F3A087B3EB5072E08BA00310806
:101B1E00BA068030BA05FF30AD17B017AF05B00565
:101B2E000730B101B601B701B801B9002C1CA12DC7
:101B3E009B278931AE36AD0CAC0CAF35B00DB10D67
:101B4E00B90B9D2D0930B9002C1CAF2D9B27893167
:101B5E00AE36AD0CAC0CB836B70CB60CB90BAB2D13
:101B6E003608A0003708A1003808A2003508A300E7
:101B7E003A08A400C9252008AC002108AD002208AF
:101B8E00AE00080023080319D12D220821042004D9
:101B9E00031DD92DA001A101A2010800A30AA2369E
:101BAE00A10CA00CFE3022050319E72DD52DA30A9A
:101BBE00A00A0319A10A0319A20AA236A10CA00CAD
:101BCE00FF3022050319F42DDE2D02302302031CF3
:101BDE00F62DA303A035A10DA20DA11FEC2D231CE4
:101BEE00A113A3362308A700A601A5012508A0046A
:101BFE002608A1042708A2042408031DA217080022
:101C0E00F401A91F112EA809A909A80A0319A90AE6
:101C1E00F401F40A2808A0002908A1008E30A201C0
:101C2E00A3007408A400C9252008A8002108A90053
:101C3E002208AA000800B72789310310610D620D32
:101C4E00E8006808031D302EDC01DD01DE01DF0136
:101C5E000800B72789311730E236E10CE00C890B0A
:101C6E00332E6008E300DD17DE015C08E4005D083A
:101C7E00E5005E08E6008E30E701E802E81F532E0D
:101C8E006808803A8F3E031C2B2EE736E60CE50CD7
:101C9E00E40CE80F4C2E602E1830680203182B2E21
:101CAE0068080319602EE435E50DE60DE70DE8032F
:101CBE00572E630803196E2EE409E509E609E709B4
:101CCE00E40A0319E50A0319E60A0319E70A670885
:101CDE00DF006608DE006508DD006408DC00080031
:101CEE002808A0002908A1008E30A201A300A4019B
:101CFE00C9252008A8002108A9002208AA0008006A
:101D0E006C07A03E860087012808C03F2908C13F06
:101D1E002A08C23F6C086C076C07AC3E8600280888
:101D2E00C03F2908C13F2A08C23F080081006C0845
:101D3E006C076C07A03E8600403F2300E800413F41
:101D4E00E900423FEA0020006C086C076C07AC3ECD
:101D5E00860023006808C03F6908C13F6A08C23F79
:101D6E0020006C08080056082100C3002000570808
:101D7E002100C400200058082100C500430820009F
:101D8E00AC00210044082000AD00210045082000D1
:101D9E00AE00CD30AF004C30B0003D30B100080089
:101DAE006C086C076C07AC3E860008002808BB0068
:101DBE002908BC002A08BD00210043082000AC0001
:101DCE00210044082000AD00210045082000AE008F
:101DDE006C086C3E86000130870001080800280858
:101DEE00CA002908CB002A08CC004030BB01BC0138
:101DFE00BD006C086C076C07DC3E86000130870066
:101E0E00403FBE00413FBF00423FC00008006C088B
:101E1E006C076C07DC3E86000130870008008600E8
:101E2E008701403FD900413FDA00423FDB00080006
:101E3E006C076C07A03E860087010800403FD90062
:101E4E00413FDA00423FDB000800403FD600413FF1
:101E5E00D700423FD80008008600403F2300E9002B
:101E6E00413FEA00690886006A0887006808810019
:101E7E0020006C3508006C086C076C07383E860035
:101E8E000130870008006C086C076C07A03E080044
:101E9E002300E8000030E901E835E90D6807840009
:101EAE009030693D8500003F0800C23F21006F0859
:101EBE002300E800E836E83668082000A800A901EB
:101ECE0008004A08C03F4B08C13F4C08C23F0800FB
:101EDE002808BB002908BC002A08BD000800403FA6
:101EEE00AF00413FB000423FB10008003B08CD00BB
:101EFE003C08CE003D08CF000800BF3E8600FC30F7
:101F0E0087018105210061080800403FCA00413F5A
:101F1E00CB00423FCC0008006C076C07AC3E86003D
:101F2E0000308701C03F08002F08B6073008B73DC4
:101F3E003108B83D08006C3E860001308700023043
:101F4E00810008005608BE005708BF005808C000A0
:101F5E0008002808D6002908D7002A08D80008004B
:101F6E005C08E0005D08E1005E08E200080056082B
:101F7E00C03F5708C13F580808002C08BE002D0866
:101F8E00BF002E08C00008003B08C03F3C08C13F00
:101F9E003D08C23F0800403FAC00413FAD00423F0C
:101FAE00AE0008002808AF002908B0002A08B100CA
:101FBE00080001082300E80020006C350800FF30FF
:101FCE00CD06CE06CF06CD0A0800BF3E860087019D
:101FDE000108FC3908006C35643E8600013087002C
:101FEE000800BB01BC01BD010800AC01AD01AE0192
:101FFE00080000340034C8340034CC340034D134FA
:10200E000034D6340034DB340034E1340034E634AA
:10201E000034EC340034F1340034F7340034FD3441
:10202E0000340334013409340134103401341634CD
:10203E0001341D340134243401342B340134323450
:10204E0001343934013441340134493401345134CA
:10205E00013459340134613401346A340134723438
:10206E0001347B340134843401348E34013497349A
:10207E000134A1340134AB340134B5340134C034ED
:10208E000134CB340134D6340134E1340134EC3430
:10209E000134F834013404340234113402341E3461
:1020AE0002342B340234383402344634023454347D
:1020BE0002346234023470340234803402348F3489
:1020CE0002349F340234AF340234BF340234D0347D
:1020DE000234E1340234F334023405340334183458
:1020EE0003342B3403343E34033452340334673414
:1020FE0003347C34033491340334A7340334BE34B4
:10210E000334D5340334EC340334043404341D3432
:10211E00043436340434503404346B34043486348A
:10212E000434A2340434BE340434DC340434F934BC
:10213E0004341834053437340534573405347834C0
:10214E0005349A340534BC340534E0340534043493
:10215E000634293406344F340634763406349D342E
:10216E000634C6340634F03406341A340734463492
:10217E00073473340734A1340734CF3407340034B2
:10218E000834313408346334083497340834CB348B
:10219E000834023409343934093472340934AC3415
:1021AE000934E734093424340A3463340A34A2344B
:1021BE000A34E4340A3427340B346B340B34B2341F
:1021CE000B34FA340B3443340C348F340C34DC348B
:1021DE000C342B340D347C340D34CF340D34243484
:1021EE000E347B340E34D4340E342F340F348C34FE
:1021FE000F34EC340F344E341034B23410341934EE
:10220E00113482341134EE3411345C341234CD3442
:10221E00123441341334B734133430341434AC34F0
:10222E0014342C341534AE34153433341634BC34E3
:10223E00163447341734D734173469341834FF340E
:10224E0018349934193437341A34D8341A347D3456
:10225E001B3426341C34D3341C3484341D343A34A9
:10226E001E34F4341E34B2341F34753420343D34ED
:10227E00213409342234DA342234B13423348C3408
:10228E0024346D342534533426343F3427343034DB
:10229E0028342734293424342A3428342B34313446
:1022AE002C3441342D3457342E3474342F34983426
:1022BE003034C3343134F53432342E3434346F3454
:1022CE003534B73436340834383461343934C134A3
:1022DE003A342B343C349D343D3418343F349C34E2
:1022EE00403429344234C0344334613445340B34E1
:1022FE004734C03448347F344A344A344C341F3463
:10230E004E34FF344F34EB345134E3345334E7342A
:10231E005534F734573414345A343E345C347534EF
:10232E005E34BA3460340D3463346E346534DE3466
:10233E0067345D346A34EB346C3488346F3436343D
:10234E007234F5347434C4347734A5347A34973413
:10235E007D349B348034B2348334DC348634193487
:10236E008A346A348D34D03490344B349434DB3424
:10237E00973480349B343D349F341034A334FB3473
:10238E00A634FE34AA341934AF344E34B3349D34EB
:10239E00B7340634BC348A34C0342A34C534E734F6
:1023AE00C934C034CE34B834D334CE34D8340334F4
:1023BE00DE345834E334CE34E8346634EE3420342C
:1023CE00F434FD34F934FF34FF34FF34FF34FF347A
:1023DE00FF34FF34FF34FF34FF34FF34FF34FF3457
:1023EE00FF34FF34FF34FF34FF34FF34FF34FF3447
:0E23FE00FF340834BA34123434345634783490
:020000040001F9
:04000E00E4F9F9DF39
:00000001FF
